{
  "_format": "hh-sol-artifact-1",
  "contractName": "Pay3",
  "sourceName": "contracts/Pay3.sol",
  "abi": [
    {
      "inputs": [],
      "stateMutability": "nonpayable",
      "type": "constructor"
    },
    {
      "anonymous": false,
      "inputs": [
        {
          "indexed": true,
          "internalType": "address",
          "name": "owner",
          "type": "address"
        },
        {
          "indexed": true,
          "internalType": "address",
          "name": "approved",
          "type": "address"
        },
        {
          "indexed": true,
          "internalType": "uint256",
          "name": "tokenId",
          "type": "uint256"
        }
      ],
      "name": "Approval",
      "type": "event"
    },
    {
      "anonymous": false,
      "inputs": [
        {
          "indexed": true,
          "internalType": "address",
          "name": "owner",
          "type": "address"
        },
        {
          "indexed": true,
          "internalType": "address",
          "name": "operator",
          "type": "address"
        },
        {
          "indexed": false,
          "internalType": "bool",
          "name": "approved",
          "type": "bool"
        }
      ],
      "name": "ApprovalForAll",
      "type": "event"
    },
    {
      "anonymous": false,
      "inputs": [
        {
          "indexed": true,
          "internalType": "address",
          "name": "from",
          "type": "address"
        },
        {
          "indexed": true,
          "internalType": "address",
          "name": "to",
          "type": "address"
        },
        {
          "indexed": true,
          "internalType": "uint256",
          "name": "tokenId",
          "type": "uint256"
        }
      ],
      "name": "Transfer",
      "type": "event"
    },
    {
      "inputs": [
        {
          "internalType": "address",
          "name": "to",
          "type": "address"
        },
        {
          "internalType": "uint256",
          "name": "tokenId",
          "type": "uint256"
        }
      ],
      "name": "approve",
      "outputs": [],
      "stateMutability": "nonpayable",
      "type": "function"
    },
    {
      "inputs": [
        {
          "internalType": "address",
          "name": "owner",
          "type": "address"
        }
      ],
      "name": "balanceOf",
      "outputs": [
        {
          "internalType": "uint256",
          "name": "",
          "type": "uint256"
        }
      ],
      "stateMutability": "view",
      "type": "function"
    },
    {
      "inputs": [
        {
          "internalType": "uint256",
          "name": "tokenId",
          "type": "uint256"
        }
      ],
      "name": "getApproved",
      "outputs": [
        {
          "internalType": "address",
          "name": "",
          "type": "address"
        }
      ],
      "stateMutability": "view",
      "type": "function"
    },
    {
      "inputs": [
        {
          "internalType": "address",
          "name": "owner",
          "type": "address"
        },
        {
          "internalType": "address",
          "name": "operator",
          "type": "address"
        }
      ],
      "name": "isApprovedForAll",
      "outputs": [
        {
          "internalType": "bool",
          "name": "",
          "type": "bool"
        }
      ],
      "stateMutability": "view",
      "type": "function"
    },
    {
      "inputs": [],
      "name": "mint",
      "outputs": [
        {
          "internalType": "uint256",
          "name": "",
          "type": "uint256"
        }
      ],
      "stateMutability": "payable",
      "type": "function"
    },
    {
      "inputs": [],
      "name": "name",
      "outputs": [
        {
          "internalType": "string",
          "name": "",
          "type": "string"
        }
      ],
      "stateMutability": "view",
      "type": "function"
    },
    {
      "inputs": [
        {
          "internalType": "uint256",
          "name": "tokenId",
          "type": "uint256"
        }
      ],
      "name": "ownerOf",
      "outputs": [
        {
          "internalType": "address",
          "name": "",
          "type": "address"
        }
      ],
      "stateMutability": "view",
      "type": "function"
    },
    {
      "inputs": [
        {
          "internalType": "address",
          "name": "from",
          "type": "address"
        },
        {
          "internalType": "address",
          "name": "to",
          "type": "address"
        },
        {
          "internalType": "uint256",
          "name": "tokenId",
          "type": "uint256"
        }
      ],
      "name": "safeTransferFrom",
      "outputs": [],
      "stateMutability": "nonpayable",
      "type": "function"
    },
    {
      "inputs": [
        {
          "internalType": "address",
          "name": "from",
          "type": "address"
        },
        {
          "internalType": "address",
          "name": "to",
          "type": "address"
        },
        {
          "internalType": "uint256",
          "name": "tokenId",
          "type": "uint256"
        },
        {
          "internalType": "bytes",
          "name": "data",
          "type": "bytes"
        }
      ],
      "name": "safeTransferFrom",
      "outputs": [],
      "stateMutability": "nonpayable",
      "type": "function"
    },
    {
      "inputs": [
        {
          "internalType": "address",
          "name": "operator",
          "type": "address"
        },
        {
          "internalType": "bool",
          "name": "approved",
          "type": "bool"
        }
      ],
      "name": "setApprovalForAll",
      "outputs": [],
      "stateMutability": "nonpayable",
      "type": "function"
    },
    {
      "inputs": [
        {
          "internalType": "uint256",
          "name": "tokenId",
          "type": "uint256"
        },
        {
          "internalType": "bool",
          "name": "state",
          "type": "bool"
        }
      ],
      "name": "subscribe",
      "outputs": [],
      "stateMutability": "nonpayable",
      "type": "function"
    },
    {
      "inputs": [
        {
          "internalType": "uint256",
          "name": "",
          "type": "uint256"
        }
      ],
      "name": "subscribeState",
      "outputs": [
        {
          "internalType": "bool",
          "name": "",
          "type": "bool"
        }
      ],
      "stateMutability": "view",
      "type": "function"
    },
    {
      "inputs": [
        {
          "internalType": "bytes4",
          "name": "interfaceId",
          "type": "bytes4"
        }
      ],
      "name": "supportsInterface",
      "outputs": [
        {
          "internalType": "bool",
          "name": "",
          "type": "bool"
        }
      ],
      "stateMutability": "view",
      "type": "function"
    },
    {
      "inputs": [],
      "name": "symbol",
      "outputs": [
        {
          "internalType": "string",
          "name": "",
          "type": "string"
        }
      ],
      "stateMutability": "view",
      "type": "function"
    },
    {
      "inputs": [
        {
          "internalType": "uint256",
          "name": "tokenId",
          "type": "uint256"
        }
      ],
      "name": "tokenURI",
      "outputs": [
        {
          "internalType": "string",
          "name": "",
          "type": "string"
        }
      ],
      "stateMutability": "view",
      "type": "function"
    },
    {
      "inputs": [
        {
          "internalType": "address",
          "name": "from",
          "type": "address"
        },
        {
          "internalType": "address",
          "name": "to",
          "type": "address"
        },
        {
          "internalType": "uint256",
          "name": "tokenId",
          "type": "uint256"
        }
      ],
      "name": "transferFrom",
      "outputs": [],
      "stateMutability": "nonpayable",
      "type": "function"
    }
  ],
  "bytecode": "0x60806040523480156200001157600080fd5b506040518060400160405280600481526020017f50617933000000000000000000000000000000000000000000000000000000008152506040518060400160405280600481526020017f504159330000000000000000000000000000000000000000000000000000000081525081600090816200008f919062000324565b508060019081620000a1919062000324565b5050506200040b565b600081519050919050565b7f4e487b7100000000000000000000000000000000000000000000000000000000600052604160045260246000fd5b7f4e487b7100000000000000000000000000000000000000000000000000000000600052602260045260246000fd5b600060028204905060018216806200012c57607f821691505b602082108103620001425762000141620000e4565b5b50919050565b60008190508160005260206000209050919050565b60006020601f8301049050919050565b600082821b905092915050565b600060088302620001ac7fffffffffffffffffffffffffffffffffffffffffffffffffffffffffffffffff826200016d565b620001b886836200016d565b95508019841693508086168417925050509392505050565b6000819050919050565b6000819050919050565b600062000205620001ff620001f984620001d0565b620001da565b620001d0565b9050919050565b6000819050919050565b6200022183620001e4565b6200023962000230826200020c565b8484546200017a565b825550505050565b600090565b6200025062000241565b6200025d81848462000216565b505050565b5b8181101562000285576200027960008262000246565b60018101905062000263565b5050565b601f821115620002d4576200029e8162000148565b620002a9846200015d565b81016020851015620002b9578190505b620002d1620002c8856200015d565b83018262000262565b50505b505050565b600082821c905092915050565b6000620002f960001984600802620002d9565b1980831691505092915050565b6000620003148383620002e6565b9150826002028217905092915050565b6200032f82620000aa565b67ffffffffffffffff8111156200034b576200034a620000b5565b5b62000357825462000113565b6200036482828562000289565b600060209050601f8311600181146200039c576000841562000387578287015190505b62000393858262000306565b86555062000403565b601f198416620003ac8662000148565b60005b82811015620003d657848901518255600182019150602085019450602081019050620003af565b86831015620003f65784890151620003f2601f891682620002e6565b8355505b6001600288020188555050505b505050505050565b6126bd806200041b6000396000f3fe6080604052600436106100f35760003560e01c80636352211e1161008a578063a22cb46511610059578063a22cb46514610341578063b88d4fde1461036a578063c87b56dd14610393578063e985e9c5146103d0576100f3565b80636352211e1461025f57806370a082311461029c5780638dbc481d146102d957806395d89b4114610316576100f3565b80631249c58b116100c65780631249c58b146101c657806323b872dd146101e4578063382b43fb1461020d57806342842e0e14610236576100f3565b806301ffc9a7146100f857806306fdde0314610135578063081812fc14610160578063095ea7b31461019d575b600080fd5b34801561010457600080fd5b5061011f600480360381019061011a9190611979565b61040d565b60405161012c91906119c1565b60405180910390f35b34801561014157600080fd5b5061014a6104ef565b6040516101579190611a6c565b60405180910390f35b34801561016c57600080fd5b5061018760048036038101906101829190611ac4565b610581565b6040516101949190611b32565b60405180910390f35b3480156101a957600080fd5b506101c460048036038101906101bf9190611b79565b6105c7565b005b6101ce6106de565b6040516101db9190611bc8565b60405180910390f35b3480156101f057600080fd5b5061020b60048036038101906102069190611be3565b610709565b005b34801561021957600080fd5b50610234600480360381019061022f9190611c62565b610769565b005b34801561024257600080fd5b5061025d60048036038101906102589190611be3565b610798565b005b34801561026b57600080fd5b5061028660048036038101906102819190611ac4565b6107b8565b6040516102939190611b32565b60405180910390f35b3480156102a857600080fd5b506102c360048036038101906102be9190611ca2565b61083e565b6040516102d09190611bc8565b60405180910390f35b3480156102e557600080fd5b5061030060048036038101906102fb9190611ac4565b6108f5565b60405161030d91906119c1565b60405180910390f35b34801561032257600080fd5b5061032b610915565b6040516103389190611a6c565b60405180910390f35b34801561034d57600080fd5b5061036860048036038101906103639190611ccf565b6109a7565b005b34801561037657600080fd5b50610391600480360381019061038c9190611e44565b6109bd565b005b34801561039f57600080fd5b506103ba60048036038101906103b59190611ac4565b610a1f565b6040516103c79190611a6c565b60405180910390f35b3480156103dc57600080fd5b506103f760048036038101906103f29190611ec7565b610a87565b60405161040491906119c1565b60405180910390f35b60007f80ac58cd000000000000000000000000000000000000000000000000000000007bffffffffffffffffffffffffffffffffffffffffffffffffffffffff1916827bffffffffffffffffffffffffffffffffffffffffffffffffffffffff191614806104d857507f5b5e139f000000000000000000000000000000000000000000000000000000007bffffffffffffffffffffffffffffffffffffffffffffffffffffffff1916827bffffffffffffffffffffffffffffffffffffffffffffffffffffffff1916145b806104e857506104e782610b1b565b5b9050919050565b6060600080546104fe90611f36565b80601f016020809104026020016040519081016040528092919081815260200182805461052a90611f36565b80156105775780601f1061054c57610100808354040283529160200191610577565b820191906000526020600020905b81548152906001019060200180831161055a57829003601f168201915b5050505050905090565b600061058c82610b85565b6004600083815260200190815260200160002060009054906101000a900473ffffffffffffffffffffffffffffffffffffffff169050919050565b60006105d2826107b8565b90508073ffffffffffffffffffffffffffffffffffffffff168373ffffffffffffffffffffffffffffffffffffffff1603610642576040517f08c379a000000000000000000000000000000000000000000000000000000000815260040161063990611fd9565b60405180910390fd5b8073ffffffffffffffffffffffffffffffffffffffff16610661610bd0565b73ffffffffffffffffffffffffffffffffffffffff161480610690575061068f8161068a610bd0565b610a87565b5b6106cf576040517f08c379a00000000000000000000000000000000000000000000000000000000081526004016106c69061206b565b60405180910390fd5b6106d98383610bd8565b505050565b60006106ea6006610c91565b60006106f66006610ca7565b90506107023382610cb5565b8091505090565b61071a610714610bd0565b82610cd3565b610759576040517f08c379a0000000000000000000000000000000000000000000000000000000008152600401610750906120fd565b60405180910390fd5b610764838383610d68565b505050565b806007600084815260200190815260200160002060006101000a81548160ff0219169083151502179055505050565b6107b3838383604051806020016040528060008152506109bd565b505050565b6000806107c483611061565b9050600073ffffffffffffffffffffffffffffffffffffffff168173ffffffffffffffffffffffffffffffffffffffff1603610835576040517f08c379a000000000000000000000000000000000000000000000000000000000815260040161082c90612169565b60405180910390fd5b80915050919050565b60008073ffffffffffffffffffffffffffffffffffffffff168273ffffffffffffffffffffffffffffffffffffffff16036108ae576040517f08c379a00000000000000000000000000000000000000000000000000000000081526004016108a5906121fb565b60405180910390fd5b600360008373ffffffffffffffffffffffffffffffffffffffff1673ffffffffffffffffffffffffffffffffffffffff168152602001908152602001600020549050919050565b60076020528060005260406000206000915054906101000a900460ff1681565b60606001805461092490611f36565b80601f016020809104026020016040519081016040528092919081815260200182805461095090611f36565b801561099d5780601f106109725761010080835404028352916020019161099d565b820191906000526020600020905b81548152906001019060200180831161098057829003601f168201915b5050505050905090565b6109b96109b2610bd0565b838361109e565b5050565b6109ce6109c8610bd0565b83610cd3565b610a0d576040517f08c379a0000000000000000000000000000000000000000000000000000000008152600401610a04906120fd565b60405180910390fd5b610a198484848461120a565b50505050565b6060610a2a82610b85565b6000610a34611266565b90506000815111610a545760405180602001604052806000815250610a7f565b80610a5e8461127d565b604051602001610a6f929190612257565b6040516020818303038152906040525b915050919050565b6000600560008473ffffffffffffffffffffffffffffffffffffffff1673ffffffffffffffffffffffffffffffffffffffff16815260200190815260200160002060008373ffffffffffffffffffffffffffffffffffffffff1673ffffffffffffffffffffffffffffffffffffffff16815260200190815260200160002060009054906101000a900460ff16905092915050565b60007f01ffc9a7000000000000000000000000000000000000000000000000000000007bffffffffffffffffffffffffffffffffffffffffffffffffffffffff1916827bffffffffffffffffffffffffffffffffffffffffffffffffffffffff1916149050919050565b610b8e8161134b565b610bcd576040517f08c379a0000000000000000000000000000000000000000000000000000000008152600401610bc490612169565b60405180910390fd5b50565b600033905090565b816004600083815260200190815260200160002060006101000a81548173ffffffffffffffffffffffffffffffffffffffff021916908373ffffffffffffffffffffffffffffffffffffffff160217905550808273ffffffffffffffffffffffffffffffffffffffff16610c4b836107b8565b73ffffffffffffffffffffffffffffffffffffffff167f8c5be1e5ebec7d5bd14f71427d1e84f3dd0314c0f7b2291e5b200ac8c7c3b92560405160405180910390a45050565b6001816000016000828254019250508190555050565b600081600001549050919050565b610ccf82826040518060200160405280600081525061138c565b5050565b600080610cdf836107b8565b90508073ffffffffffffffffffffffffffffffffffffffff168473ffffffffffffffffffffffffffffffffffffffff161480610d215750610d208185610a87565b5b80610d5f57508373ffffffffffffffffffffffffffffffffffffffff16610d4784610581565b73ffffffffffffffffffffffffffffffffffffffff16145b91505092915050565b8273ffffffffffffffffffffffffffffffffffffffff16610d88826107b8565b73ffffffffffffffffffffffffffffffffffffffff1614610dde576040517f08c379a0000000000000000000000000000000000000000000000000000000008152600401610dd5906122ed565b60405180910390fd5b600073ffffffffffffffffffffffffffffffffffffffff168273ffffffffffffffffffffffffffffffffffffffff1603610e4d576040517f08c379a0000000000000000000000000000000000000000000000000000000008152600401610e449061237f565b60405180910390fd5b610e5a83838360016113e7565b8273ffffffffffffffffffffffffffffffffffffffff16610e7a826107b8565b73ffffffffffffffffffffffffffffffffffffffff1614610ed0576040517f08c379a0000000000000000000000000000000000000000000000000000000008152600401610ec7906122ed565b60405180910390fd5b6004600082815260200190815260200160002060006101000a81549073ffffffffffffffffffffffffffffffffffffffff02191690556001600360008573ffffffffffffffffffffffffffffffffffffffff1673ffffffffffffffffffffffffffffffffffffffff168152602001908152602001600020600082825403925050819055506001600360008473ffffffffffffffffffffffffffffffffffffffff1673ffffffffffffffffffffffffffffffffffffffff16815260200190815260200160002060008282540192505081905550816002600083815260200190815260200160002060006101000a81548173ffffffffffffffffffffffffffffffffffffffff021916908373ffffffffffffffffffffffffffffffffffffffff160217905550808273ffffffffffffffffffffffffffffffffffffffff168473ffffffffffffffffffffffffffffffffffffffff167fddf252ad1be2c89b69c2b068fc378daa952ba7f163c4a11628f55a4df523b3ef60405160405180910390a461105c83838360016113ed565b505050565b60006002600083815260200190815260200160002060009054906101000a900473ffffffffffffffffffffffffffffffffffffffff169050919050565b8173ffffffffffffffffffffffffffffffffffffffff168373ffffffffffffffffffffffffffffffffffffffff160361110c576040517f08c379a0000000000000000000000000000000000000000000000000000000008152600401611103906123eb565b60405180910390fd5b80600560008573ffffffffffffffffffffffffffffffffffffffff1673ffffffffffffffffffffffffffffffffffffffff16815260200190815260200160002060008473ffffffffffffffffffffffffffffffffffffffff1673ffffffffffffffffffffffffffffffffffffffff16815260200190815260200160002060006101000a81548160ff0219169083151502179055508173ffffffffffffffffffffffffffffffffffffffff168373ffffffffffffffffffffffffffffffffffffffff167f17307eab39ab6107e8899845ad3d59bd9653f200f220920489ca2b5937696c31836040516111fd91906119c1565b60405180910390a3505050565b611215848484610d68565b611221848484846113f3565b611260576040517f08c379a00000000000000000000000000000000000000000000000000000000081526004016112579061247d565b60405180910390fd5b50505050565b606060405180602001604052806000815250905090565b60606000600161128c8461157a565b01905060008167ffffffffffffffff8111156112ab576112aa611d19565b5b6040519080825280601f01601f1916602001820160405280156112dd5781602001600182028036833780820191505090505b509050600082602001820190505b600115611340578080600190039150507f3031323334353637383961626364656600000000000000000000000000000000600a86061a8153600a85816113345761133361249d565b5b049450600085036112eb575b819350505050919050565b60008073ffffffffffffffffffffffffffffffffffffffff1661136d83611061565b73ffffffffffffffffffffffffffffffffffffffff1614159050919050565b61139683836116cd565b6113a360008484846113f3565b6113e2576040517f08c379a00000000000000000000000000000000000000000000000000000000081526004016113d99061247d565b60405180910390fd5b505050565b50505050565b50505050565b60006114148473ffffffffffffffffffffffffffffffffffffffff166118ea565b1561156d578373ffffffffffffffffffffffffffffffffffffffff1663150b7a0261143d610bd0565b8786866040518563ffffffff1660e01b815260040161145f9493929190612521565b6020604051808303816000875af192505050801561149b57506040513d601f19601f820116820180604052508101906114989190612582565b60015b61151d573d80600081146114cb576040519150601f19603f3d011682016040523d82523d6000602084013e6114d0565b606091505b506000815103611515576040517f08c379a000000000000000000000000000000000000000000000000000000000815260040161150c9061247d565b60405180910390fd5b805181602001fd5b63150b7a0260e01b7bffffffffffffffffffffffffffffffffffffffffffffffffffffffff1916817bffffffffffffffffffffffffffffffffffffffffffffffffffffffff191614915050611572565b600190505b949350505050565b600080600090507a184f03e93ff9f4daa797ed6e38ed64bf6a1f01000000000000000083106115d8577a184f03e93ff9f4daa797ed6e38ed64bf6a1f01000000000000000083816115ce576115cd61249d565b5b0492506040810190505b6d04ee2d6d415b85acef81000000008310611615576d04ee2d6d415b85acef8100000000838161160b5761160a61249d565b5b0492506020810190505b662386f26fc10000831061164457662386f26fc10000838161163a5761163961249d565b5b0492506010810190505b6305f5e100831061166d576305f5e10083816116635761166261249d565b5b0492506008810190505b61271083106116925761271083816116885761168761249d565b5b0492506004810190505b606483106116b557606483816116ab576116aa61249d565b5b0492506002810190505b600a83106116c4576001810190505b80915050919050565b600073ffffffffffffffffffffffffffffffffffffffff168273ffffffffffffffffffffffffffffffffffffffff160361173c576040517f08c379a0000000000000000000000000000000000000000000000000000000008152600401611733906125fb565b60405180910390fd5b6117458161134b565b15611785576040517f08c379a000000000000000000000000000000000000000000000000000000000815260040161177c90612667565b60405180910390fd5b6117936000838360016113e7565b61179c8161134b565b156117dc576040517f08c379a00000000000000000000000000000000000000000000000000000000081526004016117d390612667565b60405180910390fd5b6001600360008473ffffffffffffffffffffffffffffffffffffffff1673ffffffffffffffffffffffffffffffffffffffff16815260200190815260200160002060008282540192505081905550816002600083815260200190815260200160002060006101000a81548173ffffffffffffffffffffffffffffffffffffffff021916908373ffffffffffffffffffffffffffffffffffffffff160217905550808273ffffffffffffffffffffffffffffffffffffffff16600073ffffffffffffffffffffffffffffffffffffffff167fddf252ad1be2c89b69c2b068fc378daa952ba7f163c4a11628f55a4df523b3ef60405160405180910390a46118e66000838360016113ed565b5050565b6000808273ffffffffffffffffffffffffffffffffffffffff163b119050919050565b6000604051905090565b600080fd5b600080fd5b60007fffffffff0000000000000000000000000000000000000000000000000000000082169050919050565b61195681611921565b811461196157600080fd5b50565b6000813590506119738161194d565b92915050565b60006020828403121561198f5761198e611917565b5b600061199d84828501611964565b91505092915050565b60008115159050919050565b6119bb816119a6565b82525050565b60006020820190506119d660008301846119b2565b92915050565b600081519050919050565b600082825260208201905092915050565b60005b83811015611a165780820151818401526020810190506119fb565b60008484015250505050565b6000601f19601f8301169050919050565b6000611a3e826119dc565b611a4881856119e7565b9350611a588185602086016119f8565b611a6181611a22565b840191505092915050565b60006020820190508181036000830152611a868184611a33565b905092915050565b6000819050919050565b611aa181611a8e565b8114611aac57600080fd5b50565b600081359050611abe81611a98565b92915050565b600060208284031215611ada57611ad9611917565b5b6000611ae884828501611aaf565b91505092915050565b600073ffffffffffffffffffffffffffffffffffffffff82169050919050565b6000611b1c82611af1565b9050919050565b611b2c81611b11565b82525050565b6000602082019050611b476000830184611b23565b92915050565b611b5681611b11565b8114611b6157600080fd5b50565b600081359050611b7381611b4d565b92915050565b60008060408385031215611b9057611b8f611917565b5b6000611b9e85828601611b64565b9250506020611baf85828601611aaf565b9150509250929050565b611bc281611a8e565b82525050565b6000602082019050611bdd6000830184611bb9565b92915050565b600080600060608486031215611bfc57611bfb611917565b5b6000611c0a86828701611b64565b9350506020611c1b86828701611b64565b9250506040611c2c86828701611aaf565b9150509250925092565b611c3f816119a6565b8114611c4a57600080fd5b50565b600081359050611c5c81611c36565b92915050565b60008060408385031215611c7957611c78611917565b5b6000611c8785828601611aaf565b9250506020611c9885828601611c4d565b9150509250929050565b600060208284031215611cb857611cb7611917565b5b6000611cc684828501611b64565b91505092915050565b60008060408385031215611ce657611ce5611917565b5b6000611cf485828601611b64565b9250506020611d0585828601611c4d565b9150509250929050565b600080fd5b600080fd5b7f4e487b7100000000000000000000000000000000000000000000000000000000600052604160045260246000fd5b611d5182611a22565b810181811067ffffffffffffffff82111715611d7057611d6f611d19565b5b80604052505050565b6000611d8361190d565b9050611d8f8282611d48565b919050565b600067ffffffffffffffff821115611daf57611dae611d19565b5b611db882611a22565b9050602081019050919050565b82818337600083830152505050565b6000611de7611de284611d94565b611d79565b905082815260208101848484011115611e0357611e02611d14565b5b611e0e848285611dc5565b509392505050565b600082601f830112611e2b57611e2a611d0f565b5b8135611e3b848260208601611dd4565b91505092915050565b60008060008060808587031215611e5e57611e5d611917565b5b6000611e6c87828801611b64565b9450506020611e7d87828801611b64565b9350506040611e8e87828801611aaf565b925050606085013567ffffffffffffffff811115611eaf57611eae61191c565b5b611ebb87828801611e16565b91505092959194509250565b60008060408385031215611ede57611edd611917565b5b6000611eec85828601611b64565b9250506020611efd85828601611b64565b9150509250929050565b7f4e487b7100000000000000000000000000000000000000000000000000000000600052602260045260246000fd5b60006002820490506001821680611f4e57607f821691505b602082108103611f6157611f60611f07565b5b50919050565b7f4552433732313a20617070726f76616c20746f2063757272656e74206f776e6560008201527f7200000000000000000000000000000000000000000000000000000000000000602082015250565b6000611fc36021836119e7565b9150611fce82611f67565b604082019050919050565b60006020820190508181036000830152611ff281611fb6565b9050919050565b7f4552433732313a20617070726f76652063616c6c6572206973206e6f7420746f60008201527f6b656e206f776e6572206f7220617070726f76656420666f7220616c6c000000602082015250565b6000612055603d836119e7565b915061206082611ff9565b604082019050919050565b6000602082019050818103600083015261208481612048565b9050919050565b7f4552433732313a2063616c6c6572206973206e6f7420746f6b656e206f776e6560008201527f72206f7220617070726f76656400000000000000000000000000000000000000602082015250565b60006120e7602d836119e7565b91506120f28261208b565b604082019050919050565b60006020820190508181036000830152612116816120da565b9050919050565b7f4552433732313a20696e76616c696420746f6b656e2049440000000000000000600082015250565b60006121536018836119e7565b915061215e8261211d565b602082019050919050565b6000602082019050818103600083015261218281612146565b9050919050565b7f4552433732313a2061646472657373207a65726f206973206e6f74206120766160008201527f6c6964206f776e65720000000000000000000000000000000000000000000000602082015250565b60006121e56029836119e7565b91506121f082612189565b604082019050919050565b60006020820190508181036000830152612214816121d8565b9050919050565b600081905092915050565b6000612231826119dc565b61223b818561221b565b935061224b8185602086016119f8565b80840191505092915050565b60006122638285612226565b915061226f8284612226565b91508190509392505050565b7f4552433732313a207472616e736665722066726f6d20696e636f72726563742060008201527f6f776e6572000000000000000000000000000000000000000000000000000000602082015250565b60006122d76025836119e7565b91506122e28261227b565b604082019050919050565b60006020820190508181036000830152612306816122ca565b9050919050565b7f4552433732313a207472616e7366657220746f20746865207a65726f2061646460008201527f7265737300000000000000000000000000000000000000000000000000000000602082015250565b60006123696024836119e7565b91506123748261230d565b604082019050919050565b600060208201905081810360008301526123988161235c565b9050919050565b7f4552433732313a20617070726f766520746f2063616c6c657200000000000000600082015250565b60006123d56019836119e7565b91506123e08261239f565b602082019050919050565b60006020820190508181036000830152612404816123c8565b9050919050565b7f4552433732313a207472616e7366657220746f206e6f6e20455243373231526560008201527f63656976657220696d706c656d656e7465720000000000000000000000000000602082015250565b60006124676032836119e7565b91506124728261240b565b604082019050919050565b600060208201905081810360008301526124968161245a565b9050919050565b7f4e487b7100000000000000000000000000000000000000000000000000000000600052601260045260246000fd5b600081519050919050565b600082825260208201905092915050565b60006124f3826124cc565b6124fd81856124d7565b935061250d8185602086016119f8565b61251681611a22565b840191505092915050565b60006080820190506125366000830187611b23565b6125436020830186611b23565b6125506040830185611bb9565b818103606083015261256281846124e8565b905095945050505050565b60008151905061257c8161194d565b92915050565b60006020828403121561259857612597611917565b5b60006125a68482850161256d565b91505092915050565b7f4552433732313a206d696e7420746f20746865207a65726f2061646472657373600082015250565b60006125e56020836119e7565b91506125f0826125af565b602082019050919050565b60006020820190508181036000830152612614816125d8565b9050919050565b7f4552433732313a20746f6b656e20616c7265616479206d696e74656400000000600082015250565b6000612651601c836119e7565b915061265c8261261b565b602082019050919050565b6000602082019050818103600083015261268081612644565b905091905056fea2646970667358221220e2d3b0676a20d15def037fbba21b685cb4eb50f653d37ab2c24024c1a916fee264736f6c63430008110033",
  "linkReferences": {},
  "deployedLinkReferences": {}
}