{
  "_format": "hh-sol-artifact-1",
  "contractName": "Pay3",
  "sourceName": "contracts/Pay3.sol",
  "abi": [
    {
      "inputs": [],
      "stateMutability": "nonpayable",
      "type": "constructor"
    },
    {
      "anonymous": false,
      "inputs": [
        {
          "indexed": true,
          "internalType": "address",
          "name": "owner",
          "type": "address"
        },
        {
          "indexed": true,
          "internalType": "address",
          "name": "approved",
          "type": "address"
        },
        {
          "indexed": true,
          "internalType": "uint256",
          "name": "tokenId",
          "type": "uint256"
        }
      ],
      "name": "Approval",
      "type": "event"
    },
    {
      "anonymous": false,
      "inputs": [
        {
          "indexed": true,
          "internalType": "address",
          "name": "owner",
          "type": "address"
        },
        {
          "indexed": true,
          "internalType": "address",
          "name": "operator",
          "type": "address"
        },
        {
          "indexed": false,
          "internalType": "bool",
          "name": "approved",
          "type": "bool"
        }
      ],
      "name": "ApprovalForAll",
      "type": "event"
    },
    {
      "anonymous": false,
      "inputs": [
        {
          "indexed": true,
          "internalType": "address",
          "name": "previousOwner",
          "type": "address"
        },
        {
          "indexed": true,
          "internalType": "address",
          "name": "newOwner",
          "type": "address"
        }
      ],
      "name": "OwnershipTransferred",
      "type": "event"
    },
    {
      "anonymous": false,
      "inputs": [
        {
          "indexed": true,
          "internalType": "address",
          "name": "from",
          "type": "address"
        },
        {
          "indexed": true,
          "internalType": "address",
          "name": "to",
          "type": "address"
        },
        {
          "indexed": true,
          "internalType": "uint256",
          "name": "tokenId",
          "type": "uint256"
        }
      ],
      "name": "Transfer",
      "type": "event"
    },
    {
      "inputs": [
        {
          "internalType": "address",
          "name": "to",
          "type": "address"
        },
        {
          "internalType": "uint256",
          "name": "tokenId",
          "type": "uint256"
        }
      ],
      "name": "approve",
      "outputs": [],
      "stateMutability": "nonpayable",
      "type": "function"
    },
    {
      "inputs": [
        {
          "internalType": "address",
          "name": "owner",
          "type": "address"
        }
      ],
      "name": "balanceOf",
      "outputs": [
        {
          "internalType": "uint256",
          "name": "",
          "type": "uint256"
        }
      ],
      "stateMutability": "view",
      "type": "function"
    },
    {
      "inputs": [
        {
          "internalType": "uint256",
          "name": "tokenId",
          "type": "uint256"
        }
      ],
      "name": "getApproved",
      "outputs": [
        {
          "internalType": "address",
          "name": "",
          "type": "address"
        }
      ],
      "stateMutability": "view",
      "type": "function"
    },
    {
      "inputs": [
        {
          "internalType": "uint256",
          "name": "tokenID",
          "type": "uint256"
        }
      ],
      "name": "getTokenChargedValue",
      "outputs": [
        {
          "internalType": "uint256",
          "name": "",
          "type": "uint256"
        }
      ],
      "stateMutability": "view",
      "type": "function"
    },
    {
      "inputs": [
        {
          "internalType": "address",
          "name": "owner",
          "type": "address"
        },
        {
          "internalType": "address",
          "name": "operator",
          "type": "address"
        }
      ],
      "name": "isApprovedForAll",
      "outputs": [
        {
          "internalType": "bool",
          "name": "",
          "type": "bool"
        }
      ],
      "stateMutability": "view",
      "type": "function"
    },
    {
      "inputs": [],
      "name": "mint",
      "outputs": [
        {
          "internalType": "uint256",
          "name": "",
          "type": "uint256"
        }
      ],
      "stateMutability": "payable",
      "type": "function"
    },
    {
      "inputs": [],
      "name": "moneyCollection",
      "outputs": [],
      "stateMutability": "nonpayable",
      "type": "function"
    },
    {
      "inputs": [],
      "name": "name",
      "outputs": [
        {
          "internalType": "string",
          "name": "",
          "type": "string"
        }
      ],
      "stateMutability": "view",
      "type": "function"
    },
    {
      "inputs": [],
      "name": "owner",
      "outputs": [
        {
          "internalType": "address",
          "name": "",
          "type": "address"
        }
      ],
      "stateMutability": "view",
      "type": "function"
    },
    {
      "inputs": [
        {
          "internalType": "uint256",
          "name": "tokenId",
          "type": "uint256"
        }
      ],
      "name": "ownerOf",
      "outputs": [
        {
          "internalType": "address",
          "name": "",
          "type": "address"
        }
      ],
      "stateMutability": "view",
      "type": "function"
    },
    {
      "inputs": [],
      "name": "renounceOwnership",
      "outputs": [],
      "stateMutability": "nonpayable",
      "type": "function"
    },
    {
      "inputs": [
        {
          "internalType": "address",
          "name": "from",
          "type": "address"
        },
        {
          "internalType": "address",
          "name": "to",
          "type": "address"
        },
        {
          "internalType": "uint256",
          "name": "tokenId",
          "type": "uint256"
        }
      ],
      "name": "safeTransferFrom",
      "outputs": [],
      "stateMutability": "nonpayable",
      "type": "function"
    },
    {
      "inputs": [
        {
          "internalType": "address",
          "name": "from",
          "type": "address"
        },
        {
          "internalType": "address",
          "name": "to",
          "type": "address"
        },
        {
          "internalType": "uint256",
          "name": "tokenId",
          "type": "uint256"
        },
        {
          "internalType": "bytes",
          "name": "data",
          "type": "bytes"
        }
      ],
      "name": "safeTransferFrom",
      "outputs": [],
      "stateMutability": "nonpayable",
      "type": "function"
    },
    {
      "inputs": [],
      "name": "serviceFee",
      "outputs": [
        {
          "internalType": "uint256",
          "name": "",
          "type": "uint256"
        }
      ],
      "stateMutability": "view",
      "type": "function"
    },
    {
      "inputs": [],
      "name": "servicerWallet",
      "outputs": [
        {
          "internalType": "uint256",
          "name": "",
          "type": "uint256"
        }
      ],
      "stateMutability": "view",
      "type": "function"
    },
    {
      "inputs": [
        {
          "internalType": "address",
          "name": "operator",
          "type": "address"
        },
        {
          "internalType": "bool",
          "name": "approved",
          "type": "bool"
        }
      ],
      "name": "setApprovalForAll",
      "outputs": [],
      "stateMutability": "nonpayable",
      "type": "function"
    },
    {
      "inputs": [
        {
          "internalType": "uint256",
          "name": "tokenId",
          "type": "uint256"
        },
        {
          "internalType": "bool",
          "name": "state",
          "type": "bool"
        }
      ],
      "name": "subscribe",
      "outputs": [],
      "stateMutability": "nonpayable",
      "type": "function"
    },
    {
      "inputs": [
        {
          "internalType": "uint256",
          "name": "",
          "type": "uint256"
        }
      ],
      "name": "subscribeState",
      "outputs": [
        {
          "internalType": "bool",
          "name": "",
          "type": "bool"
        }
      ],
      "stateMutability": "view",
      "type": "function"
    },
    {
      "inputs": [
        {
          "internalType": "bytes4",
          "name": "interfaceId",
          "type": "bytes4"
        }
      ],
      "name": "supportsInterface",
      "outputs": [
        {
          "internalType": "bool",
          "name": "",
          "type": "bool"
        }
      ],
      "stateMutability": "view",
      "type": "function"
    },
    {
      "inputs": [],
      "name": "symbol",
      "outputs": [
        {
          "internalType": "string",
          "name": "",
          "type": "string"
        }
      ],
      "stateMutability": "view",
      "type": "function"
    },
    {
      "inputs": [
        {
          "internalType": "uint256",
          "name": "",
          "type": "uint256"
        }
      ],
      "name": "tokenChargedValue",
      "outputs": [
        {
          "internalType": "uint256",
          "name": "",
          "type": "uint256"
        }
      ],
      "stateMutability": "view",
      "type": "function"
    },
    {
      "inputs": [
        {
          "internalType": "uint256",
          "name": "tokenId",
          "type": "uint256"
        }
      ],
      "name": "tokenURI",
      "outputs": [
        {
          "internalType": "string",
          "name": "",
          "type": "string"
        }
      ],
      "stateMutability": "view",
      "type": "function"
    },
    {
      "inputs": [
        {
          "internalType": "address",
          "name": "from",
          "type": "address"
        },
        {
          "internalType": "address",
          "name": "to",
          "type": "address"
        },
        {
          "internalType": "uint256",
          "name": "tokenId",
          "type": "uint256"
        }
      ],
      "name": "transferFrom",
      "outputs": [],
      "stateMutability": "nonpayable",
      "type": "function"
    },
    {
      "inputs": [
        {
          "internalType": "address",
          "name": "newOwner",
          "type": "address"
        }
      ],
      "name": "transferOwnership",
      "outputs": [],
      "stateMutability": "nonpayable",
      "type": "function"
    },
    {
      "inputs": [
        {
          "internalType": "uint256",
          "name": "tokenID",
          "type": "uint256"
        }
      ],
      "name": "userWithdraw",
      "outputs": [],
      "stateMutability": "nonpayable",
      "type": "function"
    },
    {
      "inputs": [
        {
          "internalType": "uint256",
          "name": "tokenID",
          "type": "uint256"
        }
      ],
      "name": "usersendETH",
      "outputs": [],
      "stateMutability": "payable",
      "type": "function"
    },
    {
      "inputs": [],
      "name": "withdrawServicerFee",
      "outputs": [],
      "stateMutability": "nonpayable",
      "type": "function"
    }
  ],
  "bytecode": "0x60806040523480156200001157600080fd5b506040518060400160405280600481526020017f50617933000000000000000000000000000000000000000000000000000000008152506040518060400160405280600481526020017f504159330000000000000000000000000000000000000000000000000000000081525081600090816200008f919062000420565b508060019081620000a1919062000420565b505050620000c4620000b8620000d860201b60201c565b620000e060201b60201c565b662386f26fc10000600b8190555062000507565b600033905090565b6000600660009054906101000a900473ffffffffffffffffffffffffffffffffffffffff16905081600660006101000a81548173ffffffffffffffffffffffffffffffffffffffff021916908373ffffffffffffffffffffffffffffffffffffffff1602179055508173ffffffffffffffffffffffffffffffffffffffff168173ffffffffffffffffffffffffffffffffffffffff167f8be0079c531659141344cd1fd0a4f28419497f9722a3daafe3b4186f6b6457e060405160405180910390a35050565b600081519050919050565b7f4e487b7100000000000000000000000000000000000000000000000000000000600052604160045260246000fd5b7f4e487b7100000000000000000000000000000000000000000000000000000000600052602260045260246000fd5b600060028204905060018216806200022857607f821691505b6020821081036200023e576200023d620001e0565b5b50919050565b60008190508160005260206000209050919050565b60006020601f8301049050919050565b600082821b905092915050565b600060088302620002a87fffffffffffffffffffffffffffffffffffffffffffffffffffffffffffffffff8262000269565b620002b4868362000269565b95508019841693508086168417925050509392505050565b6000819050919050565b6000819050919050565b600062000301620002fb620002f584620002cc565b620002d6565b620002cc565b9050919050565b6000819050919050565b6200031d83620002e0565b620003356200032c8262000308565b84845462000276565b825550505050565b600090565b6200034c6200033d565b6200035981848462000312565b505050565b5b8181101562000381576200037560008262000342565b6001810190506200035f565b5050565b601f821115620003d0576200039a8162000244565b620003a58462000259565b81016020851015620003b5578190505b620003cd620003c48562000259565b8301826200035e565b50505b505050565b600082821c905092915050565b6000620003f560001984600802620003d5565b1980831691505092915050565b6000620004108383620003e2565b9150826002028217905092915050565b6200042b82620001a6565b67ffffffffffffffff811115620004475762000446620001b1565b5b6200045382546200020f565b6200046082828562000385565b600060209050601f83116001811462000498576000841562000483578287015190505b6200048f858262000402565b865550620004ff565b601f198416620004a88662000244565b60005b82811015620004d257848901518255600182019150602085019450602081019050620004ab565b86831015620004f25784890151620004ee601f891682620003e2565b8355505b6001600288020188555050505b505050505050565b61342480620005176000396000f3fe60806040526004361061019c5760003560e01c80638da5cb5b116100ec578063aaa224fd1161008a578063c87b56dd11610064578063c87b56dd14610584578063e985e9c5146105c1578063ee017fc7146105fe578063f2fde38b1461063b5761019c565b8063aaa224fd14610507578063ab9cc00c1461051e578063b88d4fde1461055b5761019c565b806396f06c4e116100c657806396f06c4e146104805780639a00ea14146104975780639ad24cbf146104b3578063a22cb465146104de5761019c565b80638da5cb5b146103ed5780638dbc481d1461041857806395d89b41146104555761019c565b8063382b43fb116101595780636352211e116101335780636352211e1461033157806370a082311461036e578063715018a6146103ab5780638abdf5aa146103c25761019c565b8063382b43fb146102b65780633b9056bf146102df57806342842e0e146103085761019c565b806301ffc9a7146101a157806306fdde03146101de578063081812fc14610209578063095ea7b3146102465780631249c58b1461026f57806323b872dd1461028d575b600080fd5b3480156101ad57600080fd5b506101c860048036038101906101c39190612323565b610664565b6040516101d5919061236b565b60405180910390f35b3480156101ea57600080fd5b506101f3610746565b6040516102009190612416565b60405180910390f35b34801561021557600080fd5b50610230600480360381019061022b919061246e565b6107d8565b60405161023d91906124dc565b60405180910390f35b34801561025257600080fd5b5061026d60048036038101906102689190612523565b61081e565b005b610277610935565b6040516102849190612572565b60405180910390f35b34801561029957600080fd5b506102b460048036038101906102af919061258d565b610960565b005b3480156102c257600080fd5b506102dd60048036038101906102d8919061260c565b6109c0565b005b3480156102eb57600080fd5b506103066004803603810190610301919061246e565b6109ef565b005b34801561031457600080fd5b5061032f600480360381019061032a919061258d565b610b4e565b005b34801561033d57600080fd5b506103586004803603810190610353919061246e565b610b6e565b60405161036591906124dc565b60405180910390f35b34801561037a57600080fd5b506103956004803603810190610390919061264c565b610bf4565b6040516103a29190612572565b60405180910390f35b3480156103b757600080fd5b506103c0610cab565b005b3480156103ce57600080fd5b506103d7610cbf565b6040516103e49190612572565b60405180910390f35b3480156103f957600080fd5b50610402610cc5565b60405161040f91906124dc565b60405180910390f35b34801561042457600080fd5b5061043f600480360381019061043a919061246e565b610cef565b60405161044c919061236b565b60405180910390f35b34801561046157600080fd5b5061046a610d0f565b6040516104779190612416565b60405180910390f35b34801561048c57600080fd5b50610495610da1565b005b6104b160048036038101906104ac919061246e565b610e17565b005b3480156104bf57600080fd5b506104c8610ec6565b6040516104d59190612572565b60405180910390f35b3480156104ea57600080fd5b5061050560048036038101906105009190612679565b610ecc565b005b34801561051357600080fd5b5061051c610ee2565b005b34801561052a57600080fd5b506105456004803603810190610540919061246e565b610fbb565b6040516105529190612572565b60405180910390f35b34801561056757600080fd5b50610582600480360381019061057d91906127ee565b610fd3565b005b34801561059057600080fd5b506105ab60048036038101906105a6919061246e565b611035565b6040516105b89190612416565b60405180910390f35b3480156105cd57600080fd5b506105e860048036038101906105e39190612871565b61109d565b6040516105f5919061236b565b60405180910390f35b34801561060a57600080fd5b506106256004803603810190610620919061246e565b611131565b6040516106329190612572565b60405180910390f35b34801561064757600080fd5b50610662600480360381019061065d919061264c565b6111a0565b005b60007f80ac58cd000000000000000000000000000000000000000000000000000000007bffffffffffffffffffffffffffffffffffffffffffffffffffffffff1916827bffffffffffffffffffffffffffffffffffffffffffffffffffffffff1916148061072f57507f5b5e139f000000000000000000000000000000000000000000000000000000007bffffffffffffffffffffffffffffffffffffffffffffffffffffffff1916827bffffffffffffffffffffffffffffffffffffffffffffffffffffffff1916145b8061073f575061073e82611223565b5b9050919050565b606060008054610755906128e0565b80601f0160208091040260200160405190810160405280929190818152602001828054610781906128e0565b80156107ce5780601f106107a3576101008083540402835291602001916107ce565b820191906000526020600020905b8154815290600101906020018083116107b157829003601f168201915b5050505050905090565b60006107e38261128d565b6004600083815260200190815260200160002060009054906101000a900473ffffffffffffffffffffffffffffffffffffffff169050919050565b600061082982610b6e565b90508073ffffffffffffffffffffffffffffffffffffffff168373ffffffffffffffffffffffffffffffffffffffff1603610899576040517f08c379a000000000000000000000000000000000000000000000000000000000815260040161089090612983565b60405180910390fd5b8073ffffffffffffffffffffffffffffffffffffffff166108b86112d8565b73ffffffffffffffffffffffffffffffffffffffff1614806108e757506108e6816108e16112d8565b61109d565b5b610926576040517f08c379a000000000000000000000000000000000000000000000000000000000815260040161091d90612a15565b60405180910390fd5b61093083836112e0565b505050565b60006109416007611399565b600061094d60076113af565b905061095933826113bd565b8091505090565b61097161096b6112d8565b826113db565b6109b0576040517f08c379a00000000000000000000000000000000000000000000000000000000081526004016109a790612aa7565b60405180910390fd5b6109bb838383611470565b505050565b806008600084815260200190815260200160002060006101000a81548160ff0219169083151502179055505050565b3373ffffffffffffffffffffffffffffffffffffffff16610a0f82610b6e565b73ffffffffffffffffffffffffffffffffffffffff1614610a65576040517f08c379a0000000000000000000000000000000000000000000000000000000008152600401610a5c90612b39565b60405180910390fd5b6000600960008381526020019081526020016000205490506000803390508073ffffffffffffffffffffffffffffffffffffffff1683604051610aa790612b8a565b60006040518083038185875af1925050503d8060008114610ae4576040519150601f19603f3d011682016040523d82523d6000602084013e610ae9565b606091505b50508092505081610b2f576040517f08c379a0000000000000000000000000000000000000000000000000000000008152600401610b2690612beb565b60405180910390fd5b6000600960008681526020019081526020016000208190555050505050565b610b6983838360405180602001604052806000815250610fd3565b505050565b600080610b7a83611769565b9050600073ffffffffffffffffffffffffffffffffffffffff168173ffffffffffffffffffffffffffffffffffffffff1603610beb576040517f08c379a0000000000000000000000000000000000000000000000000000000008152600401610be290612c57565b60405180910390fd5b80915050919050565b60008073ffffffffffffffffffffffffffffffffffffffff168273ffffffffffffffffffffffffffffffffffffffff1603610c64576040517f08c379a0000000000000000000000000000000000000000000000000000000008152600401610c5b90612ce9565b60405180910390fd5b600360008373ffffffffffffffffffffffffffffffffffffffff1673ffffffffffffffffffffffffffffffffffffffff168152602001908152602001600020549050919050565b610cb36117a6565b610cbd6000611824565b565b600b5481565b6000600660009054906101000a900473ffffffffffffffffffffffffffffffffffffffff16905090565b60086020528060005260406000206000915054906101000a900460ff1681565b606060018054610d1e906128e0565b80601f0160208091040260200160405190810160405280929190818152602001828054610d4a906128e0565b8015610d975780601f10610d6c57610100808354040283529160200191610d97565b820191906000526020600020905b815481529060010190602001808311610d7a57829003601f168201915b5050505050905090565b610da96117a6565b6000600a5490506000811015610dbe57600080fd5b610dc6610cc5565b73ffffffffffffffffffffffffffffffffffffffff166108fc829081150290604051600060405180830381858888f19350505050158015610e0b573d6000803e3d6000fd5b506000600a8190555050565b60003411610e5a576040517f08c379a0000000000000000000000000000000000000000000000000000000008152600401610e5190612d55565b60405180910390fd5b610e996040518060400160405280600f81526020017f6d73672e76616c75652069732025730000000000000000000000000000000000815250346118ea565b34600960008381526020019081526020016000206000828254610ebc9190612da4565b9250508190555050565b600a5481565b610ede610ed76112d8565b8383611986565b5050565b610eea6117a6565b610efc610ef760076113af565b611af2565b6000600190505b610f0d60076113af565b8111610fb857600115156008600083815260200190815260200160002060009054906101000a900460ff16151503610fa557600b5460096000838152602001908152602001600020541115610fa457600b54600960008381526020019081526020016000206000828254610f819190612dd8565b92505081905550600b54600a6000828254610f9c9190612da4565b925050819055505b5b8080610fb090612e0c565b915050610f03565b50565b60096020528060005260406000206000915090505481565b610fe4610fde6112d8565b836113db565b611023576040517f08c379a000000000000000000000000000000000000000000000000000000000815260040161101a90612aa7565b60405180910390fd5b61102f84848484611b8b565b50505050565b60606110408261128d565b600061104a611be7565b9050600081511161106a5760405180602001604052806000815250611095565b8061107484611bfe565b604051602001611085929190612e90565b6040516020818303038152906040525b915050919050565b6000600560008473ffffffffffffffffffffffffffffffffffffffff1673ffffffffffffffffffffffffffffffffffffffff16815260200190815260200160002060008373ffffffffffffffffffffffffffffffffffffffff1673ffffffffffffffffffffffffffffffffffffffff16815260200190815260200160002060009054906101000a900460ff16905092915050565b60006111856040518060400160405280602081526020017f746f6b656e4368617267656456616c75655b746f6b656e49445d20697320257381525060096000858152602001908152602001600020546118ea565b60096000838152602001908152602001600020549050919050565b6111a86117a6565b600073ffffffffffffffffffffffffffffffffffffffff168173ffffffffffffffffffffffffffffffffffffffff1603611217576040517f08c379a000000000000000000000000000000000000000000000000000000000815260040161120e90612f26565b60405180910390fd5b61122081611824565b50565b60007f01ffc9a7000000000000000000000000000000000000000000000000000000007bffffffffffffffffffffffffffffffffffffffffffffffffffffffff1916827bffffffffffffffffffffffffffffffffffffffffffffffffffffffff1916149050919050565b61129681611ccc565b6112d5576040517f08c379a00000000000000000000000000000000000000000000000000000000081526004016112cc90612c57565b60405180910390fd5b50565b600033905090565b816004600083815260200190815260200160002060006101000a81548173ffffffffffffffffffffffffffffffffffffffff021916908373ffffffffffffffffffffffffffffffffffffffff160217905550808273ffffffffffffffffffffffffffffffffffffffff1661135383610b6e565b73ffffffffffffffffffffffffffffffffffffffff167f8c5be1e5ebec7d5bd14f71427d1e84f3dd0314c0f7b2291e5b200ac8c7c3b92560405160405180910390a45050565b6001816000016000828254019250508190555050565b600081600001549050919050565b6113d7828260405180602001604052806000815250611d0d565b5050565b6000806113e783610b6e565b90508073ffffffffffffffffffffffffffffffffffffffff168473ffffffffffffffffffffffffffffffffffffffff1614806114295750611428818561109d565b5b8061146757508373ffffffffffffffffffffffffffffffffffffffff1661144f846107d8565b73ffffffffffffffffffffffffffffffffffffffff16145b91505092915050565b8273ffffffffffffffffffffffffffffffffffffffff1661149082610b6e565b73ffffffffffffffffffffffffffffffffffffffff16146114e6576040517f08c379a00000000000000000000000000000000000000000000000000000000081526004016114dd90612fb8565b60405180910390fd5b600073ffffffffffffffffffffffffffffffffffffffff168273ffffffffffffffffffffffffffffffffffffffff1603611555576040517f08c379a000000000000000000000000000000000000000000000000000000000815260040161154c9061304a565b60405180910390fd5b6115628383836001611d68565b8273ffffffffffffffffffffffffffffffffffffffff1661158282610b6e565b73ffffffffffffffffffffffffffffffffffffffff16146115d8576040517f08c379a00000000000000000000000000000000000000000000000000000000081526004016115cf90612fb8565b60405180910390fd5b6004600082815260200190815260200160002060006101000a81549073ffffffffffffffffffffffffffffffffffffffff02191690556001600360008573ffffffffffffffffffffffffffffffffffffffff1673ffffffffffffffffffffffffffffffffffffffff168152602001908152602001600020600082825403925050819055506001600360008473ffffffffffffffffffffffffffffffffffffffff1673ffffffffffffffffffffffffffffffffffffffff16815260200190815260200160002060008282540192505081905550816002600083815260200190815260200160002060006101000a81548173ffffffffffffffffffffffffffffffffffffffff021916908373ffffffffffffffffffffffffffffffffffffffff160217905550808273ffffffffffffffffffffffffffffffffffffffff168473ffffffffffffffffffffffffffffffffffffffff167fddf252ad1be2c89b69c2b068fc378daa952ba7f163c4a11628f55a4df523b3ef60405160405180910390a46117648383836001611d6e565b505050565b60006002600083815260200190815260200160002060009054906101000a900473ffffffffffffffffffffffffffffffffffffffff169050919050565b6117ae6112d8565b73ffffffffffffffffffffffffffffffffffffffff166117cc610cc5565b73ffffffffffffffffffffffffffffffffffffffff1614611822576040517f08c379a0000000000000000000000000000000000000000000000000000000008152600401611819906130b6565b60405180910390fd5b565b6000600660009054906101000a900473ffffffffffffffffffffffffffffffffffffffff16905081600660006101000a81548173ffffffffffffffffffffffffffffffffffffffff021916908373ffffffffffffffffffffffffffffffffffffffff1602179055508173ffffffffffffffffffffffffffffffffffffffff168173ffffffffffffffffffffffffffffffffffffffff167f8be0079c531659141344cd1fd0a4f28419497f9722a3daafe3b4186f6b6457e060405160405180910390a35050565b61198282826040516024016119009291906130d6565b6040516020818303038152906040527fb60e72cc000000000000000000000000000000000000000000000000000000007bffffffffffffffffffffffffffffffffffffffffffffffffffffffff19166020820180517bffffffffffffffffffffffffffffffffffffffffffffffffffffffff8381831617835250505050611d74565b5050565b8173ffffffffffffffffffffffffffffffffffffffff168373ffffffffffffffffffffffffffffffffffffffff16036119f4576040517f08c379a00000000000000000000000000000000000000000000000000000000081526004016119eb90613152565b60405180910390fd5b80600560008573ffffffffffffffffffffffffffffffffffffffff1673ffffffffffffffffffffffffffffffffffffffff16815260200190815260200160002060008473ffffffffffffffffffffffffffffffffffffffff1673ffffffffffffffffffffffffffffffffffffffff16815260200190815260200160002060006101000a81548160ff0219169083151502179055508173ffffffffffffffffffffffffffffffffffffffff168373ffffffffffffffffffffffffffffffffffffffff167f17307eab39ab6107e8899845ad3d59bd9653f200f220920489ca2b5937696c3183604051611ae5919061236b565b60405180910390a3505050565b611b8881604051602401611b069190612572565b6040516020818303038152906040527ff82c50f1000000000000000000000000000000000000000000000000000000007bffffffffffffffffffffffffffffffffffffffffffffffffffffffff19166020820180517bffffffffffffffffffffffffffffffffffffffffffffffffffffffff8381831617835250505050611d74565b50565b611b96848484611470565b611ba284848484611d9d565b611be1576040517f08c379a0000000000000000000000000000000000000000000000000000000008152600401611bd8906131e4565b60405180910390fd5b50505050565b606060405180602001604052806000815250905090565b606060006001611c0d84611f24565b01905060008167ffffffffffffffff811115611c2c57611c2b6126c3565b5b6040519080825280601f01601f191660200182016040528015611c5e5781602001600182028036833780820191505090505b509050600082602001820190505b600115611cc1578080600190039150507f3031323334353637383961626364656600000000000000000000000000000000600a86061a8153600a8581611cb557611cb4613204565b5b04945060008503611c6c575b819350505050919050565b60008073ffffffffffffffffffffffffffffffffffffffff16611cee83611769565b73ffffffffffffffffffffffffffffffffffffffff1614159050919050565b611d178383612077565b611d246000848484611d9d565b611d63576040517f08c379a0000000000000000000000000000000000000000000000000000000008152600401611d5a906131e4565b60405180910390fd5b505050565b50505050565b50505050565b60008151905060006a636f6e736f6c652e6c6f679050602083016000808483855afa5050505050565b6000611dbe8473ffffffffffffffffffffffffffffffffffffffff16612294565b15611f17578373ffffffffffffffffffffffffffffffffffffffff1663150b7a02611de76112d8565b8786866040518563ffffffff1660e01b8152600401611e099493929190613288565b6020604051808303816000875af1925050508015611e4557506040513d601f19601f82011682018060405250810190611e4291906132e9565b60015b611ec7573d8060008114611e75576040519150601f19603f3d011682016040523d82523d6000602084013e611e7a565b606091505b506000815103611ebf576040517f08c379a0000000000000000000000000000000000000000000000000000000008152600401611eb6906131e4565b60405180910390fd5b805181602001fd5b63150b7a0260e01b7bffffffffffffffffffffffffffffffffffffffffffffffffffffffff1916817bffffffffffffffffffffffffffffffffffffffffffffffffffffffff191614915050611f1c565b600190505b949350505050565b600080600090507a184f03e93ff9f4daa797ed6e38ed64bf6a1f0100000000000000008310611f82577a184f03e93ff9f4daa797ed6e38ed64bf6a1f0100000000000000008381611f7857611f77613204565b5b0492506040810190505b6d04ee2d6d415b85acef81000000008310611fbf576d04ee2d6d415b85acef81000000008381611fb557611fb4613204565b5b0492506020810190505b662386f26fc100008310611fee57662386f26fc100008381611fe457611fe3613204565b5b0492506010810190505b6305f5e1008310612017576305f5e100838161200d5761200c613204565b5b0492506008810190505b612710831061203c57612710838161203257612031613204565b5b0492506004810190505b6064831061205f576064838161205557612054613204565b5b0492506002810190505b600a831061206e576001810190505b80915050919050565b600073ffffffffffffffffffffffffffffffffffffffff168273ffffffffffffffffffffffffffffffffffffffff16036120e6576040517f08c379a00000000000000000000000000000000000000000000000000000000081526004016120dd90613362565b60405180910390fd5b6120ef81611ccc565b1561212f576040517f08c379a0000000000000000000000000000000000000000000000000000000008152600401612126906133ce565b60405180910390fd5b61213d600083836001611d68565b61214681611ccc565b15612186576040517f08c379a000000000000000000000000000000000000000000000000000000000815260040161217d906133ce565b60405180910390fd5b6001600360008473ffffffffffffffffffffffffffffffffffffffff1673ffffffffffffffffffffffffffffffffffffffff16815260200190815260200160002060008282540192505081905550816002600083815260200190815260200160002060006101000a81548173ffffffffffffffffffffffffffffffffffffffff021916908373ffffffffffffffffffffffffffffffffffffffff160217905550808273ffffffffffffffffffffffffffffffffffffffff16600073ffffffffffffffffffffffffffffffffffffffff167fddf252ad1be2c89b69c2b068fc378daa952ba7f163c4a11628f55a4df523b3ef60405160405180910390a4612290600083836001611d6e565b5050565b6000808273ffffffffffffffffffffffffffffffffffffffff163b119050919050565b6000604051905090565b600080fd5b600080fd5b60007fffffffff0000000000000000000000000000000000000000000000000000000082169050919050565b612300816122cb565b811461230b57600080fd5b50565b60008135905061231d816122f7565b92915050565b600060208284031215612339576123386122c1565b5b60006123478482850161230e565b91505092915050565b60008115159050919050565b61236581612350565b82525050565b6000602082019050612380600083018461235c565b92915050565b600081519050919050565b600082825260208201905092915050565b60005b838110156123c05780820151818401526020810190506123a5565b60008484015250505050565b6000601f19601f8301169050919050565b60006123e882612386565b6123f28185612391565b93506124028185602086016123a2565b61240b816123cc565b840191505092915050565b6000602082019050818103600083015261243081846123dd565b905092915050565b6000819050919050565b61244b81612438565b811461245657600080fd5b50565b60008135905061246881612442565b92915050565b600060208284031215612484576124836122c1565b5b600061249284828501612459565b91505092915050565b600073ffffffffffffffffffffffffffffffffffffffff82169050919050565b60006124c68261249b565b9050919050565b6124d6816124bb565b82525050565b60006020820190506124f160008301846124cd565b92915050565b612500816124bb565b811461250b57600080fd5b50565b60008135905061251d816124f7565b92915050565b6000806040838503121561253a576125396122c1565b5b60006125488582860161250e565b925050602061255985828601612459565b9150509250929050565b61256c81612438565b82525050565b60006020820190506125876000830184612563565b92915050565b6000806000606084860312156125a6576125a56122c1565b5b60006125b48682870161250e565b93505060206125c58682870161250e565b92505060406125d686828701612459565b9150509250925092565b6125e981612350565b81146125f457600080fd5b50565b600081359050612606816125e0565b92915050565b60008060408385031215612623576126226122c1565b5b600061263185828601612459565b9250506020612642858286016125f7565b9150509250929050565b600060208284031215612662576126616122c1565b5b60006126708482850161250e565b91505092915050565b600080604083850312156126905761268f6122c1565b5b600061269e8582860161250e565b92505060206126af858286016125f7565b9150509250929050565b600080fd5b600080fd5b7f4e487b7100000000000000000000000000000000000000000000000000000000600052604160045260246000fd5b6126fb826123cc565b810181811067ffffffffffffffff8211171561271a576127196126c3565b5b80604052505050565b600061272d6122b7565b905061273982826126f2565b919050565b600067ffffffffffffffff821115612759576127586126c3565b5b612762826123cc565b9050602081019050919050565b82818337600083830152505050565b600061279161278c8461273e565b612723565b9050828152602081018484840111156127ad576127ac6126be565b5b6127b884828561276f565b509392505050565b600082601f8301126127d5576127d46126b9565b5b81356127e584826020860161277e565b91505092915050565b60008060008060808587031215612808576128076122c1565b5b60006128168782880161250e565b94505060206128278782880161250e565b935050604061283887828801612459565b925050606085013567ffffffffffffffff811115612859576128586122c6565b5b612865878288016127c0565b91505092959194509250565b60008060408385031215612888576128876122c1565b5b60006128968582860161250e565b92505060206128a78582860161250e565b9150509250929050565b7f4e487b7100000000000000000000000000000000000000000000000000000000600052602260045260246000fd5b600060028204905060018216806128f857607f821691505b60208210810361290b5761290a6128b1565b5b50919050565b7f4552433732313a20617070726f76616c20746f2063757272656e74206f776e6560008201527f7200000000000000000000000000000000000000000000000000000000000000602082015250565b600061296d602183612391565b915061297882612911565b604082019050919050565b6000602082019050818103600083015261299c81612960565b9050919050565b7f4552433732313a20617070726f76652063616c6c6572206973206e6f7420746f60008201527f6b656e206f776e6572206f7220617070726f76656420666f7220616c6c000000602082015250565b60006129ff603d83612391565b9150612a0a826129a3565b604082019050919050565b60006020820190508181036000830152612a2e816129f2565b9050919050565b7f4552433732313a2063616c6c6572206973206e6f7420746f6b656e206f776e6560008201527f72206f7220617070726f76656400000000000000000000000000000000000000602082015250565b6000612a91602d83612391565b9150612a9c82612a35565b604082019050919050565b60006020820190508181036000830152612ac081612a84565b9050919050565b7f596f7520617265206e6f7420746865206f776e6572206f66207468697320746f60008201527f6b656e0000000000000000000000000000000000000000000000000000000000602082015250565b6000612b23602383612391565b9150612b2e82612ac7565b604082019050919050565b60006020820190508181036000830152612b5281612b16565b9050919050565b600081905092915050565b50565b6000612b74600083612b59565b9150612b7f82612b64565b600082019050919050565b6000612b9582612b67565b9150819050919050565b7f4661696c656420746f207472616e736665722045746865720000000000000000600082015250565b6000612bd5601883612391565b9150612be082612b9f565b602082019050919050565b60006020820190508181036000830152612c0481612bc8565b9050919050565b7f4552433732313a20696e76616c696420746f6b656e2049440000000000000000600082015250565b6000612c41601883612391565b9150612c4c82612c0b565b602082019050919050565b60006020820190508181036000830152612c7081612c34565b9050919050565b7f4552433732313a2061646472657373207a65726f206973206e6f74206120766160008201527f6c6964206f776e65720000000000000000000000000000000000000000000000602082015250565b6000612cd3602983612391565b9150612cde82612c77565b604082019050919050565b60006020820190508181036000830152612d0281612cc6565b9050919050565b7f596f75206e65656420746f2073656e6420736f6d652045746865720000000000600082015250565b6000612d3f601b83612391565b9150612d4a82612d09565b602082019050919050565b60006020820190508181036000830152612d6e81612d32565b9050919050565b7f4e487b7100000000000000000000000000000000000000000000000000000000600052601160045260246000fd5b6000612daf82612438565b9150612dba83612438565b9250828201905080821115612dd257612dd1612d75565b5b92915050565b6000612de382612438565b9150612dee83612438565b9250828203905081811115612e0657612e05612d75565b5b92915050565b6000612e1782612438565b91507fffffffffffffffffffffffffffffffffffffffffffffffffffffffffffffffff8203612e4957612e48612d75565b5b600182019050919050565b600081905092915050565b6000612e6a82612386565b612e748185612e54565b9350612e848185602086016123a2565b80840191505092915050565b6000612e9c8285612e5f565b9150612ea88284612e5f565b91508190509392505050565b7f4f776e61626c653a206e6577206f776e657220697320746865207a65726f206160008201527f6464726573730000000000000000000000000000000000000000000000000000602082015250565b6000612f10602683612391565b9150612f1b82612eb4565b604082019050919050565b60006020820190508181036000830152612f3f81612f03565b9050919050565b7f4552433732313a207472616e736665722066726f6d20696e636f72726563742060008201527f6f776e6572000000000000000000000000000000000000000000000000000000602082015250565b6000612fa2602583612391565b9150612fad82612f46565b604082019050919050565b60006020820190508181036000830152612fd181612f95565b9050919050565b7f4552433732313a207472616e7366657220746f20746865207a65726f2061646460008201527f7265737300000000000000000000000000000000000000000000000000000000602082015250565b6000613034602483612391565b915061303f82612fd8565b604082019050919050565b6000602082019050818103600083015261306381613027565b9050919050565b7f4f776e61626c653a2063616c6c6572206973206e6f7420746865206f776e6572600082015250565b60006130a0602083612391565b91506130ab8261306a565b602082019050919050565b600060208201905081810360008301526130cf81613093565b9050919050565b600060408201905081810360008301526130f081856123dd565b90506130ff6020830184612563565b9392505050565b7f4552433732313a20617070726f766520746f2063616c6c657200000000000000600082015250565b600061313c601983612391565b915061314782613106565b602082019050919050565b6000602082019050818103600083015261316b8161312f565b9050919050565b7f4552433732313a207472616e7366657220746f206e6f6e20455243373231526560008201527f63656976657220696d706c656d656e7465720000000000000000000000000000602082015250565b60006131ce603283612391565b91506131d982613172565b604082019050919050565b600060208201905081810360008301526131fd816131c1565b9050919050565b7f4e487b7100000000000000000000000000000000000000000000000000000000600052601260045260246000fd5b600081519050919050565b600082825260208201905092915050565b600061325a82613233565b613264818561323e565b93506132748185602086016123a2565b61327d816123cc565b840191505092915050565b600060808201905061329d60008301876124cd565b6132aa60208301866124cd565b6132b76040830185612563565b81810360608301526132c9818461324f565b905095945050505050565b6000815190506132e3816122f7565b92915050565b6000602082840312156132ff576132fe6122c1565b5b600061330d848285016132d4565b91505092915050565b7f4552433732313a206d696e7420746f20746865207a65726f2061646472657373600082015250565b600061334c602083612391565b915061335782613316565b602082019050919050565b6000602082019050818103600083015261337b8161333f565b9050919050565b7f4552433732313a20746f6b656e20616c7265616479206d696e74656400000000600082015250565b60006133b8601c83612391565b91506133c382613382565b602082019050919050565b600060208201905081810360008301526133e7816133ab565b905091905056fea26469706673582212209ee9d47347c51680e7e2d69a64a935fde1017012cb68aab5e1c0c3aeb6fd4c5164736f6c63430008110033",
  "linkReferences": {},
  "deployedLinkReferences": {}
}