{
  "_format": "hh-sol-artifact-1",
  "contractName": "Pay3",
  "sourceName": "contracts/Pay3.sol",
  "abi": [
    {
      "inputs": [],
      "stateMutability": "nonpayable",
      "type": "constructor"
    },
    {
      "anonymous": false,
      "inputs": [
        {
          "indexed": true,
          "internalType": "address",
          "name": "owner",
          "type": "address"
        },
        {
          "indexed": true,
          "internalType": "address",
          "name": "approved",
          "type": "address"
        },
        {
          "indexed": true,
          "internalType": "uint256",
          "name": "tokenId",
          "type": "uint256"
        }
      ],
      "name": "Approval",
      "type": "event"
    },
    {
      "anonymous": false,
      "inputs": [
        {
          "indexed": true,
          "internalType": "address",
          "name": "owner",
          "type": "address"
        },
        {
          "indexed": true,
          "internalType": "address",
          "name": "operator",
          "type": "address"
        },
        {
          "indexed": false,
          "internalType": "bool",
          "name": "approved",
          "type": "bool"
        }
      ],
      "name": "ApprovalForAll",
      "type": "event"
    },
    {
      "anonymous": false,
      "inputs": [
        {
          "indexed": true,
          "internalType": "address",
          "name": "from",
          "type": "address"
        },
        {
          "indexed": true,
          "internalType": "address",
          "name": "to",
          "type": "address"
        },
        {
          "indexed": true,
          "internalType": "uint256",
          "name": "tokenId",
          "type": "uint256"
        }
      ],
      "name": "Transfer",
      "type": "event"
    },
    {
      "inputs": [
        {
          "internalType": "address",
          "name": "to",
          "type": "address"
        },
        {
          "internalType": "uint256",
          "name": "tokenId",
          "type": "uint256"
        }
      ],
      "name": "approve",
      "outputs": [],
      "stateMutability": "nonpayable",
      "type": "function"
    },
    {
      "inputs": [
        {
          "internalType": "address",
          "name": "owner",
          "type": "address"
        }
      ],
      "name": "balanceOf",
      "outputs": [
        {
          "internalType": "uint256",
          "name": "",
          "type": "uint256"
        }
      ],
      "stateMutability": "view",
      "type": "function"
    },
    {
      "inputs": [
        {
          "internalType": "uint256",
          "name": "tokenId",
          "type": "uint256"
        }
      ],
      "name": "getApproved",
      "outputs": [
        {
          "internalType": "address",
          "name": "",
          "type": "address"
        }
      ],
      "stateMutability": "view",
      "type": "function"
    },
    {
      "inputs": [
        {
          "internalType": "uint256",
          "name": "tokenID",
          "type": "uint256"
        }
      ],
      "name": "getTokenChargedValue",
      "outputs": [
        {
          "internalType": "uint256",
          "name": "",
          "type": "uint256"
        }
      ],
      "stateMutability": "view",
      "type": "function"
    },
    {
      "inputs": [
        {
          "internalType": "address",
          "name": "owner",
          "type": "address"
        },
        {
          "internalType": "address",
          "name": "operator",
          "type": "address"
        }
      ],
      "name": "isApprovedForAll",
      "outputs": [
        {
          "internalType": "bool",
          "name": "",
          "type": "bool"
        }
      ],
      "stateMutability": "view",
      "type": "function"
    },
    {
      "inputs": [],
      "name": "mint",
      "outputs": [
        {
          "internalType": "uint256",
          "name": "",
          "type": "uint256"
        }
      ],
      "stateMutability": "payable",
      "type": "function"
    },
    {
      "inputs": [],
      "name": "name",
      "outputs": [
        {
          "internalType": "string",
          "name": "",
          "type": "string"
        }
      ],
      "stateMutability": "view",
      "type": "function"
    },
    {
      "inputs": [
        {
          "internalType": "uint256",
          "name": "tokenId",
          "type": "uint256"
        }
      ],
      "name": "ownerOf",
      "outputs": [
        {
          "internalType": "address",
          "name": "",
          "type": "address"
        }
      ],
      "stateMutability": "view",
      "type": "function"
    },
    {
      "inputs": [
        {
          "internalType": "address",
          "name": "from",
          "type": "address"
        },
        {
          "internalType": "address",
          "name": "to",
          "type": "address"
        },
        {
          "internalType": "uint256",
          "name": "tokenId",
          "type": "uint256"
        }
      ],
      "name": "safeTransferFrom",
      "outputs": [],
      "stateMutability": "nonpayable",
      "type": "function"
    },
    {
      "inputs": [
        {
          "internalType": "address",
          "name": "from",
          "type": "address"
        },
        {
          "internalType": "address",
          "name": "to",
          "type": "address"
        },
        {
          "internalType": "uint256",
          "name": "tokenId",
          "type": "uint256"
        },
        {
          "internalType": "bytes",
          "name": "data",
          "type": "bytes"
        }
      ],
      "name": "safeTransferFrom",
      "outputs": [],
      "stateMutability": "nonpayable",
      "type": "function"
    },
    {
      "inputs": [
        {
          "internalType": "address",
          "name": "operator",
          "type": "address"
        },
        {
          "internalType": "bool",
          "name": "approved",
          "type": "bool"
        }
      ],
      "name": "setApprovalForAll",
      "outputs": [],
      "stateMutability": "nonpayable",
      "type": "function"
    },
    {
      "inputs": [
        {
          "internalType": "uint256",
          "name": "tokenId",
          "type": "uint256"
        },
        {
          "internalType": "bool",
          "name": "state",
          "type": "bool"
        }
      ],
      "name": "subscribe",
      "outputs": [],
      "stateMutability": "nonpayable",
      "type": "function"
    },
    {
      "inputs": [
        {
          "internalType": "uint256",
          "name": "",
          "type": "uint256"
        }
      ],
      "name": "subscribeState",
      "outputs": [
        {
          "internalType": "bool",
          "name": "",
          "type": "bool"
        }
      ],
      "stateMutability": "view",
      "type": "function"
    },
    {
      "inputs": [
        {
          "internalType": "bytes4",
          "name": "interfaceId",
          "type": "bytes4"
        }
      ],
      "name": "supportsInterface",
      "outputs": [
        {
          "internalType": "bool",
          "name": "",
          "type": "bool"
        }
      ],
      "stateMutability": "view",
      "type": "function"
    },
    {
      "inputs": [],
      "name": "symbol",
      "outputs": [
        {
          "internalType": "string",
          "name": "",
          "type": "string"
        }
      ],
      "stateMutability": "view",
      "type": "function"
    },
    {
      "inputs": [
        {
          "internalType": "uint256",
          "name": "",
          "type": "uint256"
        }
      ],
      "name": "tokenChargedValue",
      "outputs": [
        {
          "internalType": "uint256",
          "name": "",
          "type": "uint256"
        }
      ],
      "stateMutability": "view",
      "type": "function"
    },
    {
      "inputs": [
        {
          "internalType": "uint256",
          "name": "tokenId",
          "type": "uint256"
        }
      ],
      "name": "tokenURI",
      "outputs": [
        {
          "internalType": "string",
          "name": "",
          "type": "string"
        }
      ],
      "stateMutability": "view",
      "type": "function"
    },
    {
      "inputs": [
        {
          "internalType": "address",
          "name": "from",
          "type": "address"
        },
        {
          "internalType": "address",
          "name": "to",
          "type": "address"
        },
        {
          "internalType": "uint256",
          "name": "tokenId",
          "type": "uint256"
        }
      ],
      "name": "transferFrom",
      "outputs": [],
      "stateMutability": "nonpayable",
      "type": "function"
    },
    {
      "inputs": [
        {
          "internalType": "uint256",
          "name": "tokenID",
          "type": "uint256"
        }
      ],
      "name": "userWithdraw",
      "outputs": [],
      "stateMutability": "nonpayable",
      "type": "function"
    },
    {
      "inputs": [
        {
          "internalType": "uint256",
          "name": "tokenID",
          "type": "uint256"
        }
      ],
      "name": "usersendETH",
      "outputs": [],
      "stateMutability": "payable",
      "type": "function"
    }
  ],
  "bytecode": "0x60806040523480156200001157600080fd5b506040518060400160405280600481526020017f50617933000000000000000000000000000000000000000000000000000000008152506040518060400160405280600481526020017f504159330000000000000000000000000000000000000000000000000000000081525081600090816200008f919062000324565b508060019081620000a1919062000324565b5050506200040b565b600081519050919050565b7f4e487b7100000000000000000000000000000000000000000000000000000000600052604160045260246000fd5b7f4e487b7100000000000000000000000000000000000000000000000000000000600052602260045260246000fd5b600060028204905060018216806200012c57607f821691505b602082108103620001425762000141620000e4565b5b50919050565b60008190508160005260206000209050919050565b60006020601f8301049050919050565b600082821b905092915050565b600060088302620001ac7fffffffffffffffffffffffffffffffffffffffffffffffffffffffffffffffff826200016d565b620001b886836200016d565b95508019841693508086168417925050509392505050565b6000819050919050565b6000819050919050565b600062000205620001ff620001f984620001d0565b620001da565b620001d0565b9050919050565b6000819050919050565b6200022183620001e4565b6200023962000230826200020c565b8484546200017a565b825550505050565b600090565b6200025062000241565b6200025d81848462000216565b505050565b5b8181101562000285576200027960008262000246565b60018101905062000263565b5050565b601f821115620002d4576200029e8162000148565b620002a9846200015d565b81016020851015620002b9578190505b620002d1620002c8856200015d565b83018262000262565b50505b505050565b600082821c905092915050565b6000620002f960001984600802620002d9565b1980831691505092915050565b6000620003148383620002e6565b9150826002028217905092915050565b6200032f82620000aa565b67ffffffffffffffff8111156200034b576200034a620000b5565b5b62000357825462000113565b6200036482828562000289565b600060209050601f8311600181146200039c576000841562000387578287015190505b62000393858262000306565b86555062000403565b601f198416620003ac8662000148565b60005b82811015620003d657848901518255600182019150602085019450602081019050620003af565b86831015620003f65784890151620003f2601f891682620002e6565b8355505b6001600288020188555050505b505050505050565b612d45806200041b6000396000f3fe60806040526004361061011f5760003560e01c806370a08231116100a0578063ab9cc00c11610064578063ab9cc00c146103db578063b88d4fde14610418578063c87b56dd14610441578063e985e9c51461047e578063ee017fc7146104bb5761011f565b806370a08231146102f15780638dbc481d1461032e57806395d89b411461036b5780639a00ea1414610396578063a22cb465146103b25761011f565b806323b872dd116100e757806323b872dd14610210578063382b43fb146102395780633b9056bf1461026257806342842e0e1461028b5780636352211e146102b45761011f565b806301ffc9a71461012457806306fdde0314610161578063081812fc1461018c578063095ea7b3146101c95780631249c58b146101f2575b600080fd5b34801561013057600080fd5b5061014b60048036038101906101469190611dbe565b6104f8565b6040516101589190611e06565b60405180910390f35b34801561016d57600080fd5b506101766105da565b6040516101839190611eb1565b60405180910390f35b34801561019857600080fd5b506101b360048036038101906101ae9190611f09565b61066c565b6040516101c09190611f77565b60405180910390f35b3480156101d557600080fd5b506101f060048036038101906101eb9190611fbe565b6106b2565b005b6101fa6107c9565b604051610207919061200d565b60405180910390f35b34801561021c57600080fd5b5061023760048036038101906102329190612028565b6107f4565b005b34801561024557600080fd5b50610260600480360381019061025b91906120a7565b610854565b005b34801561026e57600080fd5b5061028960048036038101906102849190611f09565b610883565b005b34801561029757600080fd5b506102b260048036038101906102ad9190612028565b6109e2565b005b3480156102c057600080fd5b506102db60048036038101906102d69190611f09565b610a02565b6040516102e89190611f77565b60405180910390f35b3480156102fd57600080fd5b50610318600480360381019061031391906120e7565b610a88565b604051610325919061200d565b60405180910390f35b34801561033a57600080fd5b5061035560048036038101906103509190611f09565b610b3f565b6040516103629190611e06565b60405180910390f35b34801561037757600080fd5b50610380610b5f565b60405161038d9190611eb1565b60405180910390f35b6103b060048036038101906103ab9190611f09565b610bf1565b005b3480156103be57600080fd5b506103d960048036038101906103d49190612114565b610ca0565b005b3480156103e757600080fd5b5061040260048036038101906103fd9190611f09565b610cb6565b60405161040f919061200d565b60405180910390f35b34801561042457600080fd5b5061043f600480360381019061043a9190612289565b610cce565b005b34801561044d57600080fd5b5061046860048036038101906104639190611f09565b610d30565b6040516104759190611eb1565b60405180910390f35b34801561048a57600080fd5b506104a560048036038101906104a0919061230c565b610d98565b6040516104b29190611e06565b60405180910390f35b3480156104c757600080fd5b506104e260048036038101906104dd9190611f09565b610e2c565b6040516104ef919061200d565b60405180910390f35b60007f80ac58cd000000000000000000000000000000000000000000000000000000007bffffffffffffffffffffffffffffffffffffffffffffffffffffffff1916827bffffffffffffffffffffffffffffffffffffffffffffffffffffffff191614806105c357507f5b5e139f000000000000000000000000000000000000000000000000000000007bffffffffffffffffffffffffffffffffffffffffffffffffffffffff1916827bffffffffffffffffffffffffffffffffffffffffffffffffffffffff1916145b806105d357506105d282610e9b565b5b9050919050565b6060600080546105e99061237b565b80601f01602080910402602001604051908101604052809291908181526020018280546106159061237b565b80156106625780601f1061063757610100808354040283529160200191610662565b820191906000526020600020905b81548152906001019060200180831161064557829003601f168201915b5050505050905090565b600061067782610f05565b6004600083815260200190815260200160002060009054906101000a900473ffffffffffffffffffffffffffffffffffffffff169050919050565b60006106bd82610a02565b90508073ffffffffffffffffffffffffffffffffffffffff168373ffffffffffffffffffffffffffffffffffffffff160361072d576040517f08c379a00000000000000000000000000000000000000000000000000000000081526004016107249061241e565b60405180910390fd5b8073ffffffffffffffffffffffffffffffffffffffff1661074c610f50565b73ffffffffffffffffffffffffffffffffffffffff16148061077b575061077a81610775610f50565b610d98565b5b6107ba576040517f08c379a00000000000000000000000000000000000000000000000000000000081526004016107b1906124b0565b60405180910390fd5b6107c48383610f58565b505050565b60006107d56006611011565b60006107e16006611027565b90506107ed3382611035565b8091505090565b6108056107ff610f50565b82611053565b610844576040517f08c379a000000000000000000000000000000000000000000000000000000000815260040161083b90612542565b60405180910390fd5b61084f8383836110e8565b505050565b806007600084815260200190815260200160002060006101000a81548160ff0219169083151502179055505050565b3373ffffffffffffffffffffffffffffffffffffffff166108a382610a02565b73ffffffffffffffffffffffffffffffffffffffff16146108f9576040517f08c379a00000000000000000000000000000000000000000000000000000000081526004016108f0906125d4565b60405180910390fd5b6000600860008381526020019081526020016000205490506000803390508073ffffffffffffffffffffffffffffffffffffffff168360405161093b90612625565b60006040518083038185875af1925050503d8060008114610978576040519150601f19603f3d011682016040523d82523d6000602084013e61097d565b606091505b505080925050816109c3576040517f08c379a00000000000000000000000000000000000000000000000000000000081526004016109ba90612686565b60405180910390fd5b6000600860008681526020019081526020016000208190555050505050565b6109fd83838360405180602001604052806000815250610cce565b505050565b600080610a0e836113e1565b9050600073ffffffffffffffffffffffffffffffffffffffff168173ffffffffffffffffffffffffffffffffffffffff1603610a7f576040517f08c379a0000000000000000000000000000000000000000000000000000000008152600401610a76906126f2565b60405180910390fd5b80915050919050565b60008073ffffffffffffffffffffffffffffffffffffffff168273ffffffffffffffffffffffffffffffffffffffff1603610af8576040517f08c379a0000000000000000000000000000000000000000000000000000000008152600401610aef90612784565b60405180910390fd5b600360008373ffffffffffffffffffffffffffffffffffffffff1673ffffffffffffffffffffffffffffffffffffffff168152602001908152602001600020549050919050565b60076020528060005260406000206000915054906101000a900460ff1681565b606060018054610b6e9061237b565b80601f0160208091040260200160405190810160405280929190818152602001828054610b9a9061237b565b8015610be75780601f10610bbc57610100808354040283529160200191610be7565b820191906000526020600020905b815481529060010190602001808311610bca57829003601f168201915b5050505050905090565b60003411610c34576040517f08c379a0000000000000000000000000000000000000000000000000000000008152600401610c2b906127f0565b60405180910390fd5b610c736040518060400160405280600f81526020017f6d73672e76616c756520697320257300000000000000000000000000000000008152503461141e565b34600860008381526020019081526020016000206000828254610c96919061283f565b9250508190555050565b610cb2610cab610f50565b83836114ba565b5050565b60086020528060005260406000206000915090505481565b610cdf610cd9610f50565b83611053565b610d1e576040517f08c379a0000000000000000000000000000000000000000000000000000000008152600401610d1590612542565b60405180910390fd5b610d2a84848484611626565b50505050565b6060610d3b82610f05565b6000610d45611682565b90506000815111610d655760405180602001604052806000815250610d90565b80610d6f84611699565b604051602001610d809291906128af565b6040516020818303038152906040525b915050919050565b6000600560008473ffffffffffffffffffffffffffffffffffffffff1673ffffffffffffffffffffffffffffffffffffffff16815260200190815260200160002060008373ffffffffffffffffffffffffffffffffffffffff1673ffffffffffffffffffffffffffffffffffffffff16815260200190815260200160002060009054906101000a900460ff16905092915050565b6000610e806040518060400160405280602081526020017f746f6b656e4368617267656456616c75655b746f6b656e49445d206973202573815250600860008581526020019081526020016000205461141e565b60086000838152602001908152602001600020549050919050565b60007f01ffc9a7000000000000000000000000000000000000000000000000000000007bffffffffffffffffffffffffffffffffffffffffffffffffffffffff1916827bffffffffffffffffffffffffffffffffffffffffffffffffffffffff1916149050919050565b610f0e81611767565b610f4d576040517f08c379a0000000000000000000000000000000000000000000000000000000008152600401610f44906126f2565b60405180910390fd5b50565b600033905090565b816004600083815260200190815260200160002060006101000a81548173ffffffffffffffffffffffffffffffffffffffff021916908373ffffffffffffffffffffffffffffffffffffffff160217905550808273ffffffffffffffffffffffffffffffffffffffff16610fcb83610a02565b73ffffffffffffffffffffffffffffffffffffffff167f8c5be1e5ebec7d5bd14f71427d1e84f3dd0314c0f7b2291e5b200ac8c7c3b92560405160405180910390a45050565b6001816000016000828254019250508190555050565b600081600001549050919050565b61104f8282604051806020016040528060008152506117a8565b5050565b60008061105f83610a02565b90508073ffffffffffffffffffffffffffffffffffffffff168473ffffffffffffffffffffffffffffffffffffffff1614806110a157506110a08185610d98565b5b806110df57508373ffffffffffffffffffffffffffffffffffffffff166110c78461066c565b73ffffffffffffffffffffffffffffffffffffffff16145b91505092915050565b8273ffffffffffffffffffffffffffffffffffffffff1661110882610a02565b73ffffffffffffffffffffffffffffffffffffffff161461115e576040517f08c379a000000000000000000000000000000000000000000000000000000000815260040161115590612945565b60405180910390fd5b600073ffffffffffffffffffffffffffffffffffffffff168273ffffffffffffffffffffffffffffffffffffffff16036111cd576040517f08c379a00000000000000000000000000000000000000000000000000000000081526004016111c4906129d7565b60405180910390fd5b6111da8383836001611803565b8273ffffffffffffffffffffffffffffffffffffffff166111fa82610a02565b73ffffffffffffffffffffffffffffffffffffffff1614611250576040517f08c379a000000000000000000000000000000000000000000000000000000000815260040161124790612945565b60405180910390fd5b6004600082815260200190815260200160002060006101000a81549073ffffffffffffffffffffffffffffffffffffffff02191690556001600360008573ffffffffffffffffffffffffffffffffffffffff1673ffffffffffffffffffffffffffffffffffffffff168152602001908152602001600020600082825403925050819055506001600360008473ffffffffffffffffffffffffffffffffffffffff1673ffffffffffffffffffffffffffffffffffffffff16815260200190815260200160002060008282540192505081905550816002600083815260200190815260200160002060006101000a81548173ffffffffffffffffffffffffffffffffffffffff021916908373ffffffffffffffffffffffffffffffffffffffff160217905550808273ffffffffffffffffffffffffffffffffffffffff168473ffffffffffffffffffffffffffffffffffffffff167fddf252ad1be2c89b69c2b068fc378daa952ba7f163c4a11628f55a4df523b3ef60405160405180910390a46113dc8383836001611809565b505050565b60006002600083815260200190815260200160002060009054906101000a900473ffffffffffffffffffffffffffffffffffffffff169050919050565b6114b682826040516024016114349291906129f7565b6040516020818303038152906040527fb60e72cc000000000000000000000000000000000000000000000000000000007bffffffffffffffffffffffffffffffffffffffffffffffffffffffff19166020820180517bffffffffffffffffffffffffffffffffffffffffffffffffffffffff838183161783525050505061180f565b5050565b8173ffffffffffffffffffffffffffffffffffffffff168373ffffffffffffffffffffffffffffffffffffffff1603611528576040517f08c379a000000000000000000000000000000000000000000000000000000000815260040161151f90612a73565b60405180910390fd5b80600560008573ffffffffffffffffffffffffffffffffffffffff1673ffffffffffffffffffffffffffffffffffffffff16815260200190815260200160002060008473ffffffffffffffffffffffffffffffffffffffff1673ffffffffffffffffffffffffffffffffffffffff16815260200190815260200160002060006101000a81548160ff0219169083151502179055508173ffffffffffffffffffffffffffffffffffffffff168373ffffffffffffffffffffffffffffffffffffffff167f17307eab39ab6107e8899845ad3d59bd9653f200f220920489ca2b5937696c31836040516116199190611e06565b60405180910390a3505050565b6116318484846110e8565b61163d84848484611838565b61167c576040517f08c379a000000000000000000000000000000000000000000000000000000000815260040161167390612b05565b60405180910390fd5b50505050565b606060405180602001604052806000815250905090565b6060600060016116a8846119bf565b01905060008167ffffffffffffffff8111156116c7576116c661215e565b5b6040519080825280601f01601f1916602001820160405280156116f95781602001600182028036833780820191505090505b509050600082602001820190505b60011561175c578080600190039150507f3031323334353637383961626364656600000000000000000000000000000000600a86061a8153600a85816117505761174f612b25565b5b04945060008503611707575b819350505050919050565b60008073ffffffffffffffffffffffffffffffffffffffff16611789836113e1565b73ffffffffffffffffffffffffffffffffffffffff1614159050919050565b6117b28383611b12565b6117bf6000848484611838565b6117fe576040517f08c379a00000000000000000000000000000000000000000000000000000000081526004016117f590612b05565b60405180910390fd5b505050565b50505050565b50505050565b60008151905060006a636f6e736f6c652e6c6f679050602083016000808483855afa5050505050565b60006118598473ffffffffffffffffffffffffffffffffffffffff16611d2f565b156119b2578373ffffffffffffffffffffffffffffffffffffffff1663150b7a02611882610f50565b8786866040518563ffffffff1660e01b81526004016118a49493929190612ba9565b6020604051808303816000875af19250505080156118e057506040513d601f19601f820116820180604052508101906118dd9190612c0a565b60015b611962573d8060008114611910576040519150601f19603f3d011682016040523d82523d6000602084013e611915565b606091505b50600081510361195a576040517f08c379a000000000000000000000000000000000000000000000000000000000815260040161195190612b05565b60405180910390fd5b805181602001fd5b63150b7a0260e01b7bffffffffffffffffffffffffffffffffffffffffffffffffffffffff1916817bffffffffffffffffffffffffffffffffffffffffffffffffffffffff1916149150506119b7565b600190505b949350505050565b600080600090507a184f03e93ff9f4daa797ed6e38ed64bf6a1f0100000000000000008310611a1d577a184f03e93ff9f4daa797ed6e38ed64bf6a1f0100000000000000008381611a1357611a12612b25565b5b0492506040810190505b6d04ee2d6d415b85acef81000000008310611a5a576d04ee2d6d415b85acef81000000008381611a5057611a4f612b25565b5b0492506020810190505b662386f26fc100008310611a8957662386f26fc100008381611a7f57611a7e612b25565b5b0492506010810190505b6305f5e1008310611ab2576305f5e1008381611aa857611aa7612b25565b5b0492506008810190505b6127108310611ad7576127108381611acd57611acc612b25565b5b0492506004810190505b60648310611afa5760648381611af057611aef612b25565b5b0492506002810190505b600a8310611b09576001810190505b80915050919050565b600073ffffffffffffffffffffffffffffffffffffffff168273ffffffffffffffffffffffffffffffffffffffff1603611b81576040517f08c379a0000000000000000000000000000000000000000000000000000000008152600401611b7890612c83565b60405180910390fd5b611b8a81611767565b15611bca576040517f08c379a0000000000000000000000000000000000000000000000000000000008152600401611bc190612cef565b60405180910390fd5b611bd8600083836001611803565b611be181611767565b15611c21576040517f08c379a0000000000000000000000000000000000000000000000000000000008152600401611c1890612cef565b60405180910390fd5b6001600360008473ffffffffffffffffffffffffffffffffffffffff1673ffffffffffffffffffffffffffffffffffffffff16815260200190815260200160002060008282540192505081905550816002600083815260200190815260200160002060006101000a81548173ffffffffffffffffffffffffffffffffffffffff021916908373ffffffffffffffffffffffffffffffffffffffff160217905550808273ffffffffffffffffffffffffffffffffffffffff16600073ffffffffffffffffffffffffffffffffffffffff167fddf252ad1be2c89b69c2b068fc378daa952ba7f163c4a11628f55a4df523b3ef60405160405180910390a4611d2b600083836001611809565b5050565b6000808273ffffffffffffffffffffffffffffffffffffffff163b119050919050565b6000604051905090565b600080fd5b600080fd5b60007fffffffff0000000000000000000000000000000000000000000000000000000082169050919050565b611d9b81611d66565b8114611da657600080fd5b50565b600081359050611db881611d92565b92915050565b600060208284031215611dd457611dd3611d5c565b5b6000611de284828501611da9565b91505092915050565b60008115159050919050565b611e0081611deb565b82525050565b6000602082019050611e1b6000830184611df7565b92915050565b600081519050919050565b600082825260208201905092915050565b60005b83811015611e5b578082015181840152602081019050611e40565b60008484015250505050565b6000601f19601f8301169050919050565b6000611e8382611e21565b611e8d8185611e2c565b9350611e9d818560208601611e3d565b611ea681611e67565b840191505092915050565b60006020820190508181036000830152611ecb8184611e78565b905092915050565b6000819050919050565b611ee681611ed3565b8114611ef157600080fd5b50565b600081359050611f0381611edd565b92915050565b600060208284031215611f1f57611f1e611d5c565b5b6000611f2d84828501611ef4565b91505092915050565b600073ffffffffffffffffffffffffffffffffffffffff82169050919050565b6000611f6182611f36565b9050919050565b611f7181611f56565b82525050565b6000602082019050611f8c6000830184611f68565b92915050565b611f9b81611f56565b8114611fa657600080fd5b50565b600081359050611fb881611f92565b92915050565b60008060408385031215611fd557611fd4611d5c565b5b6000611fe385828601611fa9565b9250506020611ff485828601611ef4565b9150509250929050565b61200781611ed3565b82525050565b60006020820190506120226000830184611ffe565b92915050565b60008060006060848603121561204157612040611d5c565b5b600061204f86828701611fa9565b935050602061206086828701611fa9565b925050604061207186828701611ef4565b9150509250925092565b61208481611deb565b811461208f57600080fd5b50565b6000813590506120a18161207b565b92915050565b600080604083850312156120be576120bd611d5c565b5b60006120cc85828601611ef4565b92505060206120dd85828601612092565b9150509250929050565b6000602082840312156120fd576120fc611d5c565b5b600061210b84828501611fa9565b91505092915050565b6000806040838503121561212b5761212a611d5c565b5b600061213985828601611fa9565b925050602061214a85828601612092565b9150509250929050565b600080fd5b600080fd5b7f4e487b7100000000000000000000000000000000000000000000000000000000600052604160045260246000fd5b61219682611e67565b810181811067ffffffffffffffff821117156121b5576121b461215e565b5b80604052505050565b60006121c8611d52565b90506121d4828261218d565b919050565b600067ffffffffffffffff8211156121f4576121f361215e565b5b6121fd82611e67565b9050602081019050919050565b82818337600083830152505050565b600061222c612227846121d9565b6121be565b90508281526020810184848401111561224857612247612159565b5b61225384828561220a565b509392505050565b600082601f8301126122705761226f612154565b5b8135612280848260208601612219565b91505092915050565b600080600080608085870312156122a3576122a2611d5c565b5b60006122b187828801611fa9565b94505060206122c287828801611fa9565b93505060406122d387828801611ef4565b925050606085013567ffffffffffffffff8111156122f4576122f3611d61565b5b6123008782880161225b565b91505092959194509250565b6000806040838503121561232357612322611d5c565b5b600061233185828601611fa9565b925050602061234285828601611fa9565b9150509250929050565b7f4e487b7100000000000000000000000000000000000000000000000000000000600052602260045260246000fd5b6000600282049050600182168061239357607f821691505b6020821081036123a6576123a561234c565b5b50919050565b7f4552433732313a20617070726f76616c20746f2063757272656e74206f776e6560008201527f7200000000000000000000000000000000000000000000000000000000000000602082015250565b6000612408602183611e2c565b9150612413826123ac565b604082019050919050565b60006020820190508181036000830152612437816123fb565b9050919050565b7f4552433732313a20617070726f76652063616c6c6572206973206e6f7420746f60008201527f6b656e206f776e6572206f7220617070726f76656420666f7220616c6c000000602082015250565b600061249a603d83611e2c565b91506124a58261243e565b604082019050919050565b600060208201905081810360008301526124c98161248d565b9050919050565b7f4552433732313a2063616c6c6572206973206e6f7420746f6b656e206f776e6560008201527f72206f7220617070726f76656400000000000000000000000000000000000000602082015250565b600061252c602d83611e2c565b9150612537826124d0565b604082019050919050565b6000602082019050818103600083015261255b8161251f565b9050919050565b7f596f7520617265206e6f7420746865206f776e6572206f66207468697320746f60008201527f6b656e0000000000000000000000000000000000000000000000000000000000602082015250565b60006125be602383611e2c565b91506125c982612562565b604082019050919050565b600060208201905081810360008301526125ed816125b1565b9050919050565b600081905092915050565b50565b600061260f6000836125f4565b915061261a826125ff565b600082019050919050565b600061263082612602565b9150819050919050565b7f4661696c656420746f207472616e736665722045746865720000000000000000600082015250565b6000612670601883611e2c565b915061267b8261263a565b602082019050919050565b6000602082019050818103600083015261269f81612663565b9050919050565b7f4552433732313a20696e76616c696420746f6b656e2049440000000000000000600082015250565b60006126dc601883611e2c565b91506126e7826126a6565b602082019050919050565b6000602082019050818103600083015261270b816126cf565b9050919050565b7f4552433732313a2061646472657373207a65726f206973206e6f74206120766160008201527f6c6964206f776e65720000000000000000000000000000000000000000000000602082015250565b600061276e602983611e2c565b915061277982612712565b604082019050919050565b6000602082019050818103600083015261279d81612761565b9050919050565b7f596f75206e65656420746f2073656e6420736f6d652045746865720000000000600082015250565b60006127da601b83611e2c565b91506127e5826127a4565b602082019050919050565b60006020820190508181036000830152612809816127cd565b9050919050565b7f4e487b7100000000000000000000000000000000000000000000000000000000600052601160045260246000fd5b600061284a82611ed3565b915061285583611ed3565b925082820190508082111561286d5761286c612810565b5b92915050565b600081905092915050565b600061288982611e21565b6128938185612873565b93506128a3818560208601611e3d565b80840191505092915050565b60006128bb828561287e565b91506128c7828461287e565b91508190509392505050565b7f4552433732313a207472616e736665722066726f6d20696e636f72726563742060008201527f6f776e6572000000000000000000000000000000000000000000000000000000602082015250565b600061292f602583611e2c565b915061293a826128d3565b604082019050919050565b6000602082019050818103600083015261295e81612922565b9050919050565b7f4552433732313a207472616e7366657220746f20746865207a65726f2061646460008201527f7265737300000000000000000000000000000000000000000000000000000000602082015250565b60006129c1602483611e2c565b91506129cc82612965565b604082019050919050565b600060208201905081810360008301526129f0816129b4565b9050919050565b60006040820190508181036000830152612a118185611e78565b9050612a206020830184611ffe565b9392505050565b7f4552433732313a20617070726f766520746f2063616c6c657200000000000000600082015250565b6000612a5d601983611e2c565b9150612a6882612a27565b602082019050919050565b60006020820190508181036000830152612a8c81612a50565b9050919050565b7f4552433732313a207472616e7366657220746f206e6f6e20455243373231526560008201527f63656976657220696d706c656d656e7465720000000000000000000000000000602082015250565b6000612aef603283611e2c565b9150612afa82612a93565b604082019050919050565b60006020820190508181036000830152612b1e81612ae2565b9050919050565b7f4e487b7100000000000000000000000000000000000000000000000000000000600052601260045260246000fd5b600081519050919050565b600082825260208201905092915050565b6000612b7b82612b54565b612b858185612b5f565b9350612b95818560208601611e3d565b612b9e81611e67565b840191505092915050565b6000608082019050612bbe6000830187611f68565b612bcb6020830186611f68565b612bd86040830185611ffe565b8181036060830152612bea8184612b70565b905095945050505050565b600081519050612c0481611d92565b92915050565b600060208284031215612c2057612c1f611d5c565b5b6000612c2e84828501612bf5565b91505092915050565b7f4552433732313a206d696e7420746f20746865207a65726f2061646472657373600082015250565b6000612c6d602083611e2c565b9150612c7882612c37565b602082019050919050565b60006020820190508181036000830152612c9c81612c60565b9050919050565b7f4552433732313a20746f6b656e20616c7265616479206d696e74656400000000600082015250565b6000612cd9601c83611e2c565b9150612ce482612ca3565b602082019050919050565b60006020820190508181036000830152612d0881612ccc565b905091905056fea2646970667358221220248f7e88fec552ed45350c279630186e400d779a7c3f3ea709174a5e8c832f2d64736f6c63430008110033",
  "linkReferences": {},
  "deployedLinkReferences": {}
}